:10000000301D00200D230000196B0000F9220000B4
:1000100000000000000000000000000000000000E0
:100020000000000000000000000000006524000047
:100030000000000000000000F523000000000000A8
:10004000D1250000D1250000D1250000D1250000D8
:10005000D1250000D1250000D1250000D1250000C8
:10006000D1250000D1250000D1250000D1250000B8
:10007000D1250000D1250000D1250000D1250000A8
:10008000D1250000D1250000D1250000D125000098
:10009000D1250000D1250000D1250000D125000088
:0800A000D1250000D12500006C
:1000A80002B4714649084900095649008E4402BC09
:1000B8007047C04602B4714649084900095C4900C6
:1000C8008E4402BC7047C046002934D00123002268
:1000D80010B488422CD301242407A14204D28142BF
:1000E80002D209011B01F8E7E400A14204D28142CF
:1000F80002D249005B00F8E7884201D3401A1A434C
:100108004C08A04202D3001B5C0822438C08A04282
:1001180002D3001B9C082243CC08A04202D3001B38
:10012800DC082243002803D01B0901D00909E3E7B2
:10013800100010BC704701B5002000F00BF802BD9C
:100148000029F8D003B5FFF7C1FF0EBC4243891A56
:100158001847C0467047C0461C2101231B0498421B
:1001680001D3000C10391B0A984201D3000A083940
:100178001B09984201D30009043902A2105C4018F7
:100188007047C0460403020201010101000000009B
:1001980000000000414208401C2101231B04984232
:1001A80001D3000C10391B0A984201D3000A083900
:1001B8001B09984201D30009043902A2105C401AB5
:1001C8007047C0461B1C1D1D1E1E1E1E1F1F1F1F05
:1001D8001F1F1F1F002B11D1002A0FD1002900D18A
:1001E800002802D00021C943080007B4024802A130
:1001F8004018029003BDC0465DFFFFFF03B4684688
:1002080001B5029800F04CF8019B9E4602B00CBC68
:100218007047C046D0400B00D1409C46203AD3409E
:100228001843524263469340184370479140030075
:1002380090409C46203A9340194352426346D3402B
:100248001943704710B5002903D1FFF785FF203007
:1002580002E00800FFF780FF10BDC046F7B5040CA8
:100268000D0091B20F0061438C460600019383B2E2
:10027800100C5F43444358433B0C60441B1899429D
:1002880002D9802149026418019955437143180C19
:1002980004191B04BFB24919D819091903B0F0BDD4
:1002A800F0B506000F0015001C0085B08B4263D81E
:1002B80001D1824260D821002800FFF7C3FF39002E
:1002C80000903000FFF7BEFF009B21001B1A1A00A8
:1002D80028000393FFF7AAFF00900191B94245D87F
:1002E80001D1B04242D8009B019C01200021039A11
:1002F800F61AA741FFF79AFF04000D00039B002B95
:100308002BD0019B009ADB0750081843019B590822
:10031800039B9C46B9422CD801D1B04229D832005F
:100328003B00121A8B41012692185B410027B61830
:100338005F4101235B429C446346002BEAD13000B5
:100348003900039AFFF766FF039AA4197D41060056
:100358000F00FFF76BFF241A8D410A9B002B01D079
:100368001E605F602000290005B0F0BD0024002554
:10037800C4E7B6197F41DCE700240025EDE7002338
:10038800C25C0133002AFBD1581E704710B5C41750
:10039800410CE3030B430021C2030548801859416F
:1003A800FA2200239200FFF715FF05F059FA10BD55
:1003B800E703000073B5104805F0B6FF01240F4BA2
:1003C80018681D790669836801A95B689847002841
:1003D80007D12000A840019B326853401840431EB3
:1003E8009841012803D0064805F09EFF73BD0A20F6
:1003F800FFF7CCFFE3E7C046207900002477000030
:100408003D79000010B5194C0021200005F0EBFEE5
:100418000220FFF7BBFF0121200005F0E4FE1420B5
:10042800FFF7B4FF0021200005F0DDFE0220FFF7F2
:10043800ADFF0121200005F0D6FE1420FFF7A6FF2E
:100448000021200005F0CFFE0220FFF79FFF0121C9
:10045800200005F0C8FE1420FFF798FF01212000B6
:1004680005F0C1FE024805F05FFF10BD3C770000B3
:100478005A79000010B586B06B46D87107330293DD
:10048800012303930593064B02AA04921868836814
:1004980004491C6804AA0023A04706B010BDC04642
:1004A800000000200877000070B50500084C002106
:1004B800200005F098FE0021064805F094FE28006B
:1004C800FFF7D8FF0121200005F08DFE70BDC04662
:1004D800347700002C77000070B50500084C002127
:1004E800200005F080FE0121064805F07CFE28006A
:1004F800FFF7C0FF0121200005F075FE70BDC04662
:10050800347700002C77000010B52020FFF7CCFFCF
:1005180000241B4B185D0134FFF7DEFF242CF8D1B3
:100528002120FFF7C1FF0024164B185D0134FFF7A7
:10053800D3FF242CF8D12220FFF7B6FF0024124B5A
:10054800185D0134FFF7C8FF242CF8D12320FFF7EA
:10055800ABFF00240D4B185D0134FFF7BDFF242CC1
:10056800F8D12000FFF7A0FF0024094B185D0134E3
:10057800FFF7B2FF242CF8D1064805F0D5FE10BDD0
:10058800A87A00007E7A0000547A0000007A000001
:100598002A7A00007179000010B5394805F0C4FEC8
:1005A8000021384805F01FFE002866DA364805F0B5
:1005B800BBFEFFF727FF0620FFF776FF1720FFF7A0
:1005C8008BFF1720FFF788FF1720FFF785FF042010
:1005D800FFF76AFF1720FFF767FF1620FFF77CFF7A
:1005E8000120FFF761FF0320FFF776FF0020FFF7E8
:1005F80073FF2B20FFF770FF2B20FFF76DFF0620FE
:10060800FFF752FF1720FFF767FF1720FFF764FF78
:100618001720FFF761FF0420FFF746FFFFF7CAFE28
:100628000020FFF741FFBF20FFF756FF3020FFF7FC
:100638003BFF3C20FFF750FF6120FFF735FF01200B
:10064800FFF74AFF9020FFF747FF0120FFF744FF1D
:100658002C20FFF741FF8220FFF726FF1220FFF72B
:100668003BFF5020FFF720FF9720FFF735FFFFF7EC
:100678004BFF064805F058FE10BD054897E7C046F1
:10068800837900003C770000A9790000E679000032
:10069800C37900000300F7B50A001979DB88006800
:1006A8001343826894460269DC0206D5C0242403F9
:1006B800234202D0DD0700D5634001273D00084CE6
:1006C80016681C408D4001943400AC433B4201D075
:1006D80034002C43634614601B68019A9847F7BDA1
:1006E800FFFFEFFF10B5204C200006F096FC002815
:1006F80003D11E4805F018FE10BD200006F08DFC41
:100708000028F6D0200006F088FC0028F1D0200050
:1007180006F083FC0028ECD0D02115484903FFF7E8
:10072800B9FFD02113484903FFF7B4FFD02112487D
:100738004903FFF7AFFF11481149FFF7ABFFD0217D
:1007480010484903FFF7A6FF8021236989011B6828
:100758000B4205D1A3681B69200098470A48C9E7DE
:10076800A368DB68F8E7C04678750000D47A000013
:10077800347700002C7700003C77000024770000D5
:10078800100001001C770000ED7A000010B5C417B6
:10079800410CE3030B430021C2030548801859416B
:1007A800FA2200239200FFF715FD05F059F810BD55
:1007B800E7030000F8B56120FFF776FE234D002619
:1007C800286807270012C0B2FFF786FE2868C0B263
:1007D800FFF782FE1E4C20680012C0B2FFF77CFEB5
:1007E8002068C0B2FFF778FE1020FFF75DFE0220F8
:1007F800FFF7CCFF2A68D3173B409B182268DB1011
:100808005343B34217DC0220FFF7C0FF1320FFF762
:100818004BFE0220FFF7BAFF002607272A68D317E6
:100828003B409B182268DB105343B34208DC02208C
:10083800FFF7ACFFF8BDFF20FFF74EFE0136D9E702
:10084800FF20FFF749FE0136E8E7C0460800002010
:1008580004000020F7B501906120FFF725FE2B4D1D
:100868000026286807270012C0B2FFF735FE28685F
:10087800C0B2FFF731FE264C20680012C0B2FFF765
:100888002BFE2068C0B2FFF727FE8220FFF70CFE80
:100898001220FFF721FE5020FFF706FE9720FFF7F2
:1008A8001BFE1020FFF700FE2A68D3173B409B1859
:1008B8002268DB105343B3421CDC0220FFF766FFBB
:1008C8001320FFF7F1FD002607272A68D3173B40BE
:1008D8009B182268DB105343B34210DC0220FFF759
:1008E80055FF1220FFF7E0FD6420FFF74FFFFFF7E9
:1008F80061FDF7BDFF20FFF7EFFD0136D4E7019B4F
:10090800985DFFF7E9FD0136DFE7C04608000020E3
:100918000400002010B5C417410CE3030B43002169
:10092800C203054880185941FA2200239200FFF7B4
:1009380051FC04F095FF10BDE703000010B5FFF768
:10094800D1FEFA204000FFF7E5FFFFF725FE094832
:1009580005F0EAFCFFF72EFF0748FFF77BFFFA24B4
:1009680005F058FC3220FFF7D5FFA4002000FFF760
:10097800D1FFFBE7067B0000177B0000F0B597B0BE
:10098800059304230B921A400B9B0A92DA0807235B
:100998001A40013207001C9C03910D92820700D077
:1009A800CBE1061D002804D0072909D81C204042A5
:1009B80055E1039A1A401300161D0822D31A03930F
:1009C800059B0425013B0693002309930C9304938C
:1009D8000293013B07930195002F01D0059B3360DB
:1009E8000D9B002B00DDF2E09E4B059A9A4203D343
:1009F8009D4B9A4200D2EAE00B99F21B93088907B3
:100A080000D50EE1049A0F2A00D9BCE0002F00D1CE
:100A18000FE104990EAA53540A00079912AB99548E
:100A28000C9B01330C93F5E008250195069B0133D7
:100A38000693069B9878002800D106E1029B002BBC
:100A480008D12528F2D1079B01330793012302938C
:100A58000425EAE77A284AD84B280ED8472846D8EA
:100A680029282CD825283FD041D82028DED0233863
:100A780043425841C3B20293D8E74C382E2836D89F
:100A8800FFF70EFBD4353535353535353535353544
:100A98003735353535353535356135373761616148
:100AA800D437D235D43518371835357AE637353551
:100AB8003735E600002308930425029327E0012236
:100AC80013002A38C0B2834068490B42AED1E221F4
:100AD8001800890508400B4235D1190011400291D0
:100AE8001342A3D0089013E0079B013B0793002310
:100AF800C1E70022069B08925B7802926C2B07D113
:100B08000425069B01951B786C2B01D16D19019565
:100B1800013E70192900FFF7D7FA68430600002F35
:100B28003CD0019B039ADB1B1B189A4200D23DE77D
:100B3800089B002B42D1019B042B21D108CC0360D8
:100B48000423043616E0072207349443B31893436A
:100B580003CC002F08D00132D21B039ED218B24218
:100B680000D923E71860596008331E0008250023C0
:100B780002932B00019359E7029B089300239BE7FC
:100B8800019B082B01D0162011E7072307349C434B
:100B98000CCC0260436008230836EBE7089B002B67
:100BA8000CD1019B042B01D10434C9E7019B082B0C
:100BB800E9D10734013B9C430834ECE7069B023338
:100BC80006930D9B013B0D9308CC059304E70B9B03
:100BD8009B0722D50121F21B9308802080008242C6
:100BE800D1D2049A0F2ACED8002F1CD00498DBB299
:100BF8000EAA13549C46079B12AA1354002900D12D
:100C08000EE780226346524213430EAA1354099BEF
:100C180001330993049B01330493069B0436013B7B
:100C280006E70021D9E7002903D0039B013303938A
:100C3800F0E7039B023303930A9B002BEAD1059844
:100C4800FFF79DFB039B1B18F1E78022F31BD200E3
:100C5800934298D2002F0BD103980838C01817B0C8
:100C6800F0BDC0461C7500000CBD0000DAFF000096
:100C78009B08302238603B706B469B180A9A1B7899
:100C8800002A0BD0FB70099BBB70002B1BD10024E2
:100C98000EAD049BA3421BD1F01BE0E77B70F2E78B
:100CA8000EACE4560EA9595C002C07DA039DB41863
:100CB8000140A54200D279E631700136013304992A
:100CC8009942EDD1E3E7012200237F20D21BF6E70A
:100CD800099B002B02D02B787F2B1ED80A9B002B58
:100CE8001ED012ABE35C337000230136019301235D
:100CF800019ADB1B9B18039AF3189A4200D255E617
:100D0800731C02932B78019A33700599029806F0A8
:100D18004CFB029B019E9C46664401340135B8E7B2
:100D28002B789B00FB181A6805920A9A05981A6096
:100D3800FFF725FB431C0193D9E70E2037E6C04691
:100D4800F0B59BB000AF3B628023FB181B68060020
:100D58001B07DB0F7B618378F9623A63BB63002969
:100D68000AD10478BB6BA400E41845780419FB6A1F
:100D78009D421CD8A31BFB62F378BB61BB6B002BA5
:100D880004D08023FB181B68DB071AD4BB69002B2F
:100D980000D06BE03B6B002B03D030003A6AF96A55
:100DA8009847FB6AFB63BD46F86B1BB0F0BD013486
:100DB8002000FFF7E4FAFB6A013001332418FB62D4
:100DC800D5E73378FB619B007B627368BB627B6A03
:100DD800F4183B6B002B00D03AE1FB6A2500FB635B
:100DE800BB6BE41800237B63A54257D180220523FF
:100DF800BA181268250013405A4253410133FB6266
:100E0800BB695B00E3183B633B6BAB42CBD02B78F1
:100E1800BB636B789B009C59BB4B9C4202D3BB4B7A
:100E28009C4266D37B69002B76D0B96BB86A05F013
:100E380056FA002870D06C468AB06A46B44B5361A3
:100E4800BB6A9361BB6BD36180239B001384B14B56
:100E5800136192210023B0481032890100F0C8FDC7
:100E6800A546FB6B023BFB630235CDE78023FB18ED
:100E78001B689B0700D48DE73378FB619B007B627E
:100E88007368BB627B6AF4183B6B002B63D1FB6A07
:100E9800FB63BB6B002B1ED17B63A7E72B789B0002
:100EA8009859FFF76CFA84217B181B680130002BD6
:100EB8000CD08822BA187B6B1268934206D27A1833
:100EC80012685B0098527B6B01337B63FB6B0135C7
:100ED8001B18FB6388E7802104237A1812681A40DC
:100EE8007A637A1812681A4280D0BB6BE4183B6B9D
:100EF800D2E77B69002B05D0B96BB86A05F0EFF92A
:100F0800002898D180230122FB181B68134209D1BD
:100F1800FB6BFA6A9B1AA6E780230222FB181B6860
:100F28001342A1D02000FFF72AFA84217B181B68FE
:100F3800002B0DD08822BA187B6B1268934207D217
:100F4800791809685B00421C5A527B6B01337B633A
:100F5800FB6B1B1887E7BB6B1D1E7B6315D08021BD
:100F680004237A1812681A4015007A637A181268EE
:100F78001A420AD00023BD6B7B63183340229B18AA
:100F88002100BA6BD81906F010FABB6BE318FB60A6
:100F9800FB63BB695B003B613A69FB689446634449
:100FA8007B60FB6B7A68934257D17B6B7478002126
:100FB8001A198023FB181B68D2B29B0700D4690852
:100FC8008020381800680023C00705D48033FB1838
:100FD8001B685B07DB172B407270B370F170300031
:100FE8003A6A796A3B6B9847F863002800DADAE6D0
:100FF800FB6940203370BB6B7470B370BB69290008
:10100800F37018231B18D8193A6A3B6B9847041ECB
:1010180000DAB3E0FB6ABA6BF868991A7B6A3A6A35
:10102800C91A3B699C46C91A60443B6B984700281B
:1010380000DAA5E00025FB6B1C192318FB637B6B0A
:101048009D426BD300213A6A08003B6B9847AAE699
:10105800BB6B00257B63082390E7FB6B2A4A1B7850
:10106800BB60FB6B5C78A3009B59934202D3274A71
:1010780093420CD37B69002B30D0B968B86A05F06D
:101088002EF900282AD0FB6B0233FB6389E77B69C2
:10109800002B05D0B968B86A05F021F90028F2D10B
:1010A80080230122FB181B6813420AD07B6B9B1814
:1010B800073240215218796BD219DBB254547B6342
:1010C800E1E78023FB181B685B07DCD51822402169
:1010D80052186B1CD2195455DDB2D4E78023022272
:1010E800FB181B68134203D07B6B06320133E0E721
:1010F800402118225218B9686B1CD2195155DBB21D
:101108000235EDB2D454BEE71C7500000CBD0000DA
:10111800AFB50000040000019876000040220823C3
:101128009B18DB19EB5C0732BA18137084229B00FA
:101138009B59BB63BB181C68002C01D06B00E45A98
:1011480047230121F8183A6A3B6B9847002817DBB8
:10115800FB6B1B18FB63002C04D1B86BFFF70FF96E
:10116800013084B221003A6AB86B3B6B984700287B
:1011780006DBFB6B01351B18FB6360E7F86312E6BF
:10118800F86310E6F7B504000D001E00019204F0A4
:1011980083FB030006F0B4F9054F32003B50019978
:1011A8002800A04706F0ACF9385801F0EDF8C04621
:1011B80008000000F0B585B00392058B04002B07EA
:1011C80012D407231D4002292BD1200005F01DF958
:1011D80000280FD00138238B042813D80722FEF7E4
:1011E80069FF2011A0BCC2001023012900D02023D0
:1011F8001D432583039B002B02D162B6BFF36F8F7B
:1012080005B0F0BD07261E40AE4200D0B3E0102363
:10121800258B1D4200D1BEE02A009A430723228372
:101228001D4063690293268B002B26DA002327686A
:101238006360236007339E43063B1E4326830726CD
:101248000022238B01921E40AE424BD1002F72D058
:10125800082213432383039B002B02D162B6BFF3FA
:101268006F8F002F00D18AE03D68390032002000DE
:10127800029B05F0F8F82F00F3E7072332001A4025
:10128800511F01291AD800212768616021609E43F7
:10129800062A09D13B0003E0628B013262831B6896
:1012A800002BF9D102331E432000268305F0ADF848
:1012B8000028C4D0202333432383C0E7042A09D15C
:1012C8009E432000268305F0A0F8002802D02023A2
:1012D8003343238300220726238B17001E400192E5
:1012E800AE4294D0A268002AB0D0082213432383C8
:1012F800039B002B02D162B6BFF36F8FA168002950
:10130800AFD00B6803930029ABD04B6832001D00A7
:101318002000029BA847039B002B00D01B68039961
:10132800F0E70626216993430968019133430027B2
:101338002383B54221D1019A002A00D167E7082208
:1013480013432383039B002B02D162B6BFF36F8F35
:1013580020001649019B984714E021690426496832
:1013680093430191E2E70526216993438968334352
:1013780001919BB2DBE7002701970297B2E7019B37
:10138800002BE5D1EFF3108772B608220397238B61
:10139800934323833BE720231D4200D12AE72A00F9
:1013A8009A43072322831D400FE7C046916400003B
:1013B80070B505000E0005F044F8002832DBEFF3A5
:1013C800108272B60724288B6B8B274904408B4206
:1013D80003D1002A43D00B2032E0022C0BD1013379
:1013E8006B83002A22D0280000230222310005F056
:1013F8003AF8022016E0062C1CD82000FEF75AFE08
:10140800041A1A1A04220400002333606B68002BA4
:1014180009D16E602E60002C1BD102212800FFF735
:10142800C9FE200070BD1E606E60F4E762B6BFF3AF
:101438006F8FD8E7002A02D162B6BFF36F8F0520FD
:101448004042EFE7002A02D162B6BFF36F8F8620D1
:10145800F6E7002AE5D162B6BFF36F8FE1E762B61F
:10146800BFF36F8FB7E7C046FFFF0000F7B5050071
:101478000600002D01D13000FEBD2800FEF78AFECF
:1014880001238340DA430E4F04019D433B19019326
:101498001B7B0092002BECD0E3591B69002B09D170
:1014A800009B3C191E40636804221968019800F0EB
:1014B80053FADEE7381998470028DAD1F0E7C04632
:1014C800E8760000F0B5002289B00F490F4805F012
:1014D800F2FE0024002600270E20C0220C4D0390A7
:1014E8000696079728000B4B0B4904940294019425
:1014F8000094920003F064FD0849280005F0A8FD57
:10150800200009B0F0BDC04629150000C80500201C
:101518005001002009180000300D002063B60000BB
:1015280010B5024803F068FE10BDC0463C0100201B
:10153800F7B500902048019105F046FA061E36D00E
:1015480000252800FEBD237B002B10D02368DB6814
:10155800002B01D02000984723681B69002B1ED15F
:10156800636804222000196800F0F6F90136103487
:10157800124B9C42E7D3009B002BE2D0A426002705
:101588007600002DDCD02800FFF770FF019B0500D6
:10159800002BF6D03000390004F062F9F1E72000A2
:1015A80098470028DCD03B00B3401D43DEE7050028
:1015B8000127034CDCE7C04630070020F87600001E
:1015C800E8760000014B8000C0587047587700004B
:1015D800030010B50800002B05D0044A136000F082
:1015E800B1FC002010BD16204042FBE70C00002093
:1015F80010B5054C2378002B02D1044803F0FCFDFC
:101608000123237010BDC046080900203C010020BA
:1016180010B50400044805F0D7F9002C03D00121C7
:10162800024805F08DFE10BD280700202C07002079
:1016380010B50021014805F092FE10BD28070020D2
:1016480070B5FFF7F5FF0500084C094B9C4200D325
:1016580070BD63685B79002B06D023685B68002B3C
:1016680002D02900200098471034EEE7E876000001
:10167800F876000010B5044C0449200005F039F84C
:10168800034B1C6010BDC046EC00002044770000EE
:101698002007002000238021064A10B51370064A4F
:1016A80009021360054A06481360FFF791FFFFF728
:1016B800E1FF10BD09090020280700202C070020A1
:1016C800C969000010B5044C010000220023200065
:1016D80005F030F810BDC046EC00002010B50248F7
:1016E80005F0C2F810BDC046EC00002010B5034B51
:1016F8000100186805F009F910BDC0462007002050
:1017080010B5024805F03AF910BDC046EC000020BB
:1017180070B5234B1878002836D0FFF7DFFF051E79
:101728000AD001211F4805F00BFE1F4C1F4B9C429D
:101738002BD32800FFF7DAFF1D4B1E4C1B68002B2C
:1017480017DD05F0B4FDFA2200239200FEF786FDAE
:101758004D04C20BCB0B2A4320686168121A8B41D7
:101768001100002B03D1FA239B00994201D9FFF7FE
:1017780067FF22686368FA200021800012184B4135
:1017880022606360FFF7BCFF70BD63685B79002B64
:1017980004D02368290020001B6898471034C5E747
:1017A800080900202C070020E8760000F8760000E1
:1017B80028070020C005002070B50E4D29780029A3
:1017C8000CD10120FFF7B4FE0B4C0C4B9C4206D306
:1017D800FFF79EFF0028FBD101232B7070BD6368C3
:1017E8005B79002B03D0236820009B68984710344E
:1017F800EBE7C04609090020E8760000F87600000B
:10180800F7B500210800FFF793FE041E2CD0002630
:101818001E4F05F075FE1E4B1E4A1B581360002B09
:1018280006D01D4B1B68092B02DD1C4803F0E4FCA5
:1018380000230093002C07D02000FFF717FE041E9A
:1018480002D101277F423E00FFF762FF0190002886
:1018580008D1009B124D002B13D110483A003300D9
:1018680003F0ECFC019BE4E701277F423E00D0E750
:101878002B689B69002B03D0002228001100984791
:101888001035084B9D42F3D3E7E7C04667060000D2
:1018980008000000240700202C0700203C0100203D
:1018A800E8760000F876000013B5164805F08CF8C5
:1018B800154B1B78002B0AD0EFF3108472B6FFF794
:1018C80027FF002C02D162B6BFF36F8F13BD0F4BF9
:1018D8001B68002BFAD000280AD1002200230092AE
:1018E8000193802200230A48120204F0A5F9EDE7CB
:1018F8000928EBD1064805F0EAFC064803F07CFC11
:10190800E4E7C0462C07002009090020240700202E
:10191800C80500203C01002010B5064B04001B68D8
:1019280098472100A060044804F082FFFFF7BCFF3D
:1019380010BDC0460C000020EC000020044B054AF6
:1019480000209B1ADB08994201D2C90088587047C9
:10195800E876000098760000084B10B5C31A446872
:101968001B110133237143689A710122436819607E
:1019780043685A71FFF73CFE10BDC046E876000088
:10198800F0B55E1C85B0B50000902800072317301D
:101998009843033080080F000192FFF793FE02ABD3
:1019A80004000322581D002105F008FD03AB1E703A
:1019B800002C0BD0039B21002361002314312A1F24
:1019C8000198C058C85004339A42F9D1E023BA01AB
:1019D8005B001A406D02054B2A431A402000002381
:1019E800009905F021F805B0F0BDC046C0FF0F0012
:1019F800F0B591B004AF3B600B035B0D0D00786050
:101A08007A613B610C0D002B00D173E0BB600026AE
:101A180004237E62BE62FE6202931833FB180193B0
:101A28000A231822009302339B18DB193200B96885
:101A38007869FFF785F98023F8601B01984224D361
:101A48007B696C461A795B798AB01B0213437A6901
:101A5800927912041A437B69DB791B06134304AAA3
:101A68009361294B2949D36180239B001384284B18
:101A78005161136192213300264810328901FFF722
:101A8800B7FFA546BD460DB0F0BDFB6817345B0532
:101A98005A0D3A61204A1B0B15401D43FB68E0189C
:101AA8000723984303308008FFF70CFE041E15D067
:101AB800030010337B62FB68FE62BB62042302935F
:101AC8001833FB1801930A231821009302335B187B
:101AD800124AB9687869DB19FFF732F93B690E4A8F
:101AE8005B0215401D432A0020003B68796804F01A
:101AF8009BFFC7E72000072317309843033080086F
:101B0800FFF7E0FD0400E9E7FF07000078B60000F2
:101B180004000001C0760000FF01F0FF036A000026
:101B2800F0B5002687B003930E9B04000F00150044
:101B3800B34209D00F9B30000593009310210E9BF0
:101B48000D9AFEF71BFF0600072322001D400C9C80
:101B58001A401349D200AD011543173472020A40E6
:101B6800A019154398430C9A0330120580081543B1
:101B7800FFF7A8FD041E0AD00E9B002B07D00F9B71
:101B8800310000930D9A0E9B1030FEF7F7FE2A00E5
:101B980039002000039B04F047FF07B0F0BDC046A2
:101BA80000FE0F000EB417B5054C05AB04CB0100C1
:101BB8002000019300F01CFD1EBC08BC03B01847B0
:101BC800CB6A000010B5CB0604D4890603D50349B7
:101BD800FFF7E8FF10BD0249FAE7C046B8B60000B3
:101BE800B7B60000F0B58FB0069315AB1B780700A9
:101BF8000C0008920593002B00D19CE00225199B4C
:101C0800199A1D4001231A400A92199A07331A405B
:101C18000B92002604F0EFFE0200B04204D0380018
:101C28008349FFF7BFFF0600002D09D04423199A06
:101C38001A4244D1220038007E49FFF7B3FF361814
:101C48000A9B002B0AD0059A7B4B9200D258002A97
:101C580000D17A4A38007A49FFF7A4FF00240B9B89
:101C6800A34208D0059A774B920038007649D2589B
:101C7800FFF798FF0400089B002B05D01A003800D6
:101C88007249FFF78FFF2418069B002B05D01A0016
:101C980038006F49FFF786FF2418169B6D48A41972
:101CA800002B00D09BE0189B002B51D1199BDB0720
:101CB80000D5B7E038001999FFF784FF9BE00020B2
:101CC800654B1D688542BAD0644B20001968FEF741
:101CD800FBF92900FEF734FA0C00E121090107900D
:101CE800FEF72EFAFA208000099160432900FEF7DA
:101CF80027FA0C000C903C210998FEF7E5F9E12140
:101D08000D9009010798FEF7DFF90790FA20800087
:101D180029006043FEF7D8F90C9B02903C210998F2
:101D28000193FEF70DFA380000910D9B079A4C4974
:101D3800FFF738FF83E7069B4A48012B00D1454847
:101D4800169B059C002B4AD1189B002B53D00024CE
:101D5800189E102E00D9102638001999FFF732FF67
:101D68000025AC424CDC179B38001A783E49FFF737
:101D780019FF012507231D4203D138003B49FFF70E
:101D880011FFAE4242D9179B38005A5D3649FFF71A
:101D980009FF0135102DEDD1002538003449FFF732
:101DA80001FF2B00179AD25C1300203B5E2B00D951
:101DB8002E2238002F49FFF7F5FE0135102D2AD0C5
:101DC80007231D4203D138002849FFF7EBFE2B00FB
:101DD800AE42E7D838002549FFF7E4FEEDE7169B49
:101DE8003A00254904F047FA189B002BB0D1059B0F
:101DF800002B00D05AE7380004F057FE0FB0F0BDB2
:101E080038001A49FFF7CEFE0135AAE738001B490A
:101E1800FFF7C8FEBDE7179B9B191793189B9B1BE1
:101E28001893E2E73800054A0549FFF7BBFE41E78A
:101E3800BFB60000C3B6000068770000BAB600005D
:101E480091BA00007C770000E8B60000EEB600000A
:101E5800F2B60000CB6A00003807002034070020E3
:101E6800CCB60000F16A0000F7B60000FFB600002B
:101E780001B7000003B70000F9250000FDB6000017
:101E8800F0B50B8889B0DB055C0F4B680F001500B7
:101E98008E680790002B0CD0134A9A1AD208002398
:101EA80011B2120405D438788006400FFFF746FDBA
:101EB80003003A003968788809030009490D10328F
:101EC80084465718481E814149420A400292614699
:101ED8000022049107983100059503970194009218
:101EE800FFF780FE09B0F0BD9876000073B5114A7F
:101EF80004000B000568914200D9130005216846CB
:101F08000D4A03F0D9FE0600636828000B220B492E
:101F18005B6804F0BCFD63683200280069465B68B2
:101F280004F0B5FD636828001B2205495B6804F0CE
:101F3800AEFD73BD0F27000040BC000022B70000B3
:101F480006B70000012310B500211C00074A904283
:101F580007D8074A002900D101231360054B1860F0
:101F680010BD210040085B00F1E7C04640420F0069
:101F780034070020380700200122014B1A707047EF
:101F88000A090020014B0020196070475007002003
:101F9800012210B5024B03481A7004F086FD10BDEB
:101FA8000B090020AC77000010B50248FFF79EFF30
:101FB80010BDC046AC77000010B5054B0C00186882
:101FC800FFF700FB0F22030021000248984710BDCD
:101FD80050070020AC77000010B5002802D1084B4C
:101FE800187010BD074B1B78002B03D0064805F06E
:101FF8000DF8F6E70021A42003F032FCF1E7C04613
:102008000A0900200B09002088130000F7B50E000C
:10201800042400901C4B1D780193002D14D102F06C
:1020280027FE28003200009902F0D2FD050002F0D8
:1020380029FE164F002D1CD001233B70019B1B78F5
:10204800002B0DD13000FEBD32000020009902F0B7
:10205800BFFD0500EDE72000651EFFF7BDFF2C0062
:10206800002002F0FBFD0028ECD03B78002BF2D1D9
:10207800E8E73B78002BE5D0013C2000FFF7ACFFF8
:102088003B78002BC6D1DDE70B0900200A090020A8
:10209800F0B585B000AF0C1E786036D06E468AB0B9
:1020A8006D4609686268A3682B6205231A48A9610E
:1020B8006861EA612B61A1212A00184810320023C7
:1020C8008901BA60F860FFF793FCB546E168AD4650
:1020D800226963692B6205231148A9616861EA6175
:1020E8002B61A1210023BA68F8688901FFF780FCF9
:1020F800B546E36901210B4AF86804F0B5FCA36909
:102108000121094AF86804F0AFFC2100786802F060
:10211800C1FDBD4605B0F0BD5EB70000D076000039
:102128008DB70000BCB70000CBB7000030BFFDE79B
:10213800F0B5144B144C85B00700181903910138F9
:1021480021000193FDF7C0FF104E114D4443701953
:1021580029000138FDF7B8FF45432B190293029A6D
:10216800039B0C499D1A2800019A05F01EF92819AD
:102178003200002105F022F90298083D08307D66FA
:1021880005B0F0BD000000000100000004000000E0
:1021980004000000F8760000044B996858698842EA
:1021A80002D00349034A0A6070470000D80800209B
:1021B80004ED00E000000010F0B53E4B8BB05B680A
:1021C80000AF7B60DB05DB0D04003B6062B6BFF34C
:1021D8006F8F394E130EFF2B08D1F33B1340082B9A
:1021E8003DD101213000354A04F037FC00252C0090
:1021F8003B68032B39D1324A0121300004F02DFC11
:10220800A369304A934202D32F4A934205D32F4AF7
:10221800934249D32E4A934246D2023B1A882D4B09
:102228009A4241D12368012130002B4A04F01CFC5A
:10223800266808232022F818210005F0B6F87B6AE2
:10224800002D33D0DA0502D1244A13437B620823D8
:102258003000F918FFF71CFFBD460BB0F0BD012593
:102268001207C5D50C000025C2E7F822796852008C
:102278001B4B114200D01B4B6A468AB07A606A46F3
:1022880093613B681849103BD36180239B001384FA
:10229800164B5161136191210023300010328901DE
:1022A800FFF7A6FB7B689D460026C2E75B0A5B0238
:1022B800CCE7C04600ED00E0D076000027B800006B
:1022C80052B80000A80000001475000000000020AB
:1022D8000000002002DF000069B80000FF010000D4
:1022E800F9B700000EB8000085B80000040000012E
:1022F800EFF30880EFF3098101B57246FFF75CFF41
:1023080001BDC046002080F31488BFF36F8F00F032
:10231800A9F90A4880F3088800F024F872B608483A
:102328000849401880F30988EFF314800221084314
:1023380080F31488BFF36F8F04F0F8FB301D002082
:102348003010002000080000BFF34F8F034B044AF1
:10235800DA60BFF34F8FC046FDE7C04600ED00E0EE
:102368000400FA0572B60122064B5242191DCA67CB
:10237800C02149005A5062B6BFF34F8FBFF36F8F29
:102388007047C04600E100E010B50A4B9B688342E5
:102398000DD1EFF30583002B09D08022064B52059F
:1023A80059680A435A605A6A04490A405A6204F052
:1023B8004AFF10BDD808002000ED00E0FF7FFFFFB6
:1023C8000B21084A49429368D966986680230649D2
:1023D8005B05486803434B6062B6BFF36F8F936831
:1023E800D86E7047D808002000ED00E015498A68CB
:1023F80015481044EFF3098CF0C043464C46554647
:102408005E466746F8C072B6104F114E4A698A6038
:102418003E60104C141920680F4C2060906E002309
:102428009366002800D162B6074C10191030F8C81E
:102438009846A146AA46B346BC462438F0C88CF351
:1024480009887047D80800203000000004ED00E03B
:1024580000000008640000005407002004207146B2
:10246800014202D0EFF3098001D1EFF308808169BE
:10247800023909780229FFD001B504F043FB01BDF8
:1024880043B2000605D41F221A4001239340014A93
:102498001360704700E100E043B2000609D41F2230
:1024A8001A4001239340034AD367BFF34F8FBFF30A
:1024B8006F8F704704E100E0054A43099B009B5871
:1024C8001F2210401E3A8240134018007047C04631
:1024D80000E100E030B5FF2503220B00290040B2DF
:1024E8000240D20091409B012B40C94393400028F1
:1024F8000ADBC0240A4A800880008018A400025918
:102508000A401343035130BD0F2210400838054AD2
:10251800800880008018C26911401943C161F2E740
:1025280000E100E000ED00E010B5203A1360029BE6
:1025380001245360039B06499360049BA143D36025
:1025480080235B04D361002391610265836610BD1B
:102558008D110000074B9860074B406E1860101CE7
:1025680081F30988002162B6BFF36F8F0022002330
:10257800FEF708FED8080020540700200149102261
:102588000A60704710ED00E0BFF34F8F30BF62B6AE
:10259800BFF36F8F7047C046F0B5C02400220326F2
:1025A800FF25A40010002F003040C00087400549D7
:1025B80093089B005B1819590132B94319511A2A1B
:1025C800F0D1F0BD00E100E001B5EFF30580054969
:1025D800401AC0000449014409C9984709BC9E46ED
:1025E8000249084710000000C8750000A12100003A
:1025F800F0B587B007000E001400002110226846CD
:102608001D0004F0DBFE6A4602239370054B2A0086
:102618002100684601930497059603F07BFB07B0F9
:10262800F0BDC0464B6B0000072310B50449054AAE
:1026380099430548521A03F0AEFE002010BDC0466B
:10264800371D0020004000205807002010B5022840
:1026580005D90123024A023800011343984710BDE7
:102668000077000000480047C53B0000074B70B5E5
:10267800C31A0D0006499B1059430400402205481F
:1026880004F06EFA01002000A84770BD780700200A
:10269800B76DDBB66475000073B540230D00084CB8
:1026A8000849041BA4106143009306002B00064A46
:1026B800064804F088FA011E01DA3000A84773BD05
:1026C80078070020B76DDBB6496C00006475000020
:1026D8000022F8B5012104001000FFF7FBFE1048A6
:1026E80001F066FB0F4B984216D101F073FB276986
:1026F8000D4E3800310003F0D0FE00280BDB012519
:102708003D642469310020001C3003F0C6FE002817
:1027180001DB0020E564F8BD05204042FBE7C04628
:10272800252800000000AD0BBC7700001FB56B46E4
:10273800009301930023029301330393064A6B46E7
:1027480004F078FA002805DB802200236846D201CD
:1027580002F074FD05B000BD6F6C000010B5EFF31A
:10276800108472B6084A0221136818008843106062
:102778000120034201D104F097FB002C02D162B67C
:10278800BFF36F8F10BDC046C80700200C2370B57B
:10279800434304000020084AD1188D6B40338863F6
:1027A8009818CE6B04F064FA002D03D03200210093
:1027B8000248A84770BDC04678070020647500002D
:1027C80010B5EFF3108472B6022311490A68134357
:1027D8000B6001231A4208D1002C02D162B6BFF364
:1027E8006F8F012001F00CFB11E08021094AC90517
:1027F80088588A581A42EFD0074804F039FA002C52
:1028080002D162B6BFF36F8F0020FFF7BFFF10BD84
:10281800C80700200C040000B807002010B50028E5
:1028280002D0012807D010BD044B1A6C07231000F2
:1028380018401A42F7D1FFF7A9FFF4E778070020FC
:10284800F8B504000121224804F089FD011E0AD1CF
:102858000C222048204D04F0B1FD012329001F4817
:10286800AB60FEF7A5FD631E012B25D804F0EAFB3B
:10287800031E22D11A4A1278002A1ED08021C222B1
:1028880002209200C90588501A00802183258026DD
:10289800C905ED0076024F5948593742FBD0032746
:1028A8003840022801D0012CF5D1002B0AD0002A8B
:1028B80002D162B6BFF36F8FF8BDEFF3108272B624
:1028C8000123E2E7C12302229B00CA50F4E7C04675
:1028D8007407002068070020640700209407002080
:1028E8002C0D0020024B0B60012313607047C0467B
:1028F800CC070020004870471078000013B503008B
:10290800044C009120000121034A04F0B5F8162078
:10291800404216BDB0760000C5B8000010B50122CF
:102928000648110004F0ABFB04F04CFB044C20609B
:1029380004F044FB6060002010BDC046D4070020AE
:10294800CC070020F7B50D00140004F037FB210078
:102958000600280004F09BF92F0000282DD0310034
:102968002800FDF7EDFB002905D131002000FDF717
:10297800E7FB002909D0124A12482B0001210094D4
:1029880004F07AF81620404202E0A64201D900205D
:10299800FEBD0D4E01225242D317300002F04EFC0C
:1029A80004F00CFB0500380001F08CFE7F19641B55
:1029B800F9D1300002F020FCE9E7044ADCE7C04620
:1029C800E2B80000B0760000D4070020C5B80000C7
:1029D800F0B50D0085B0190028001C00039204F022
:1029E80056F900280AD11E4A1E482B0001210094DE
:1029F80004F042F81620404205B0F0BD2B002343F6
:102A08009B0701D0184AEFE7002C15D0174F012279
:102A18005242D317380002F011FC26006019801BBF
:102A2800032E0BD8802101231148C90042581A42AD
:102A3800FCD0380002F0E0FB0020DDE7039B1B1907
:102A48009B1B59781A78090211439A78043E12049C
:102A58000A43D9780906114301F064FEDEE7C0464F
:102A6800C5B80000B076000001B90000D407002006
:102A780000E001404368080010409143A1225B68D0
:102A8800D2009850014A0020995070470C05000068
:102A9800436800205A68014BD15070470C0500006C
:102AA800436808005A68054BD35898430B40A12146
:102AB800C9005050024900205350704704050000D7
:102AC8000C05000070B545682B69002B16D0103531
:102AD800280001F0B1FC041E10D10100280001F00B
:102AE8006DFC094B98420BD122002800074901F0E0
:102AF8004BFC220001210620FFF7ECFC002070BDF2
:102B080005204042FBE7C0460000AD0B192B000032
:102B180070B5430908D10C4B5968002904D0012528
:102B280085400C68002900D170BD8B681A002A40C6
:102B38002B4202D005484B689847231E00D02368D3
:102B480021001C00EEE7C046E4070020787500006D
:102B58001F23F0B5140040680B40057B03226D016C
:102B680089B01D43E30601D4A206D20F832602AB27
:102B7800DA705C4B76002340B3424DD03DD8062B2B
:102B88004CD009D8002B49D0033EFF3E022B08D079
:102B98001620404209B0F0BD802701267F00BB42C5
:102BA800F6D123033ED501238B40A1214768C900F4
:102BB8007B500369002B3CD11F332B406D0900D09B
:102BC8008AE0A0210127C9059B005B18E021380095
:102BD800C9005D588C46210C88430100B940640C3B
:102BE8003C400C434049920029400C431443624640
:102BF800360226439E500020CCE73C4EB3420FD00D
:102C0800C0270326BF00BB42CBD0FE36FF36B342F7
:102C1800BED1FF3EFF3EC4E70726C2E71E00C0E75D
:102C28000526BEE76303C4D5012347688B403049B6
:102C3800BEE702AB10309A1C2900009001F0AAFBF5
:102C4800C0239B0201901C420DD12900009804F07A
:102C5800A2F9019B274A9342CDD102AB99780098FB
:102C680001F0F2FBC7E703AF08220021380004F0A7
:102C7800A5FB0C22002105A804F0A0FB2900009860
:102C880005AA069701F030FA1A4B984200D07FE760
:102C9800802321009B0202AA1940D71C1C4210D095
:102CA8000123240CA34353733B78167393732900B1
:102CB8000023009805AA01F0EDFA0E4B9842C8D0FF
:102CC80066E7082206A804F079FB2900009805AAFF
:102CD800059701F009FAF0E7C133FF339B001B6841
:102CE800FFDEC04606030000F0F8FFFF0202000006
:102CF8000C0500000000AD0BF0B51F001F23446851
:102D080089B00191257B0B406D011D432369160095
:102D1800002B68D080239B039E4207D12000290006
:102D2800103004F03CF9002009B0F0BD0822002161
:102D380003A804F043FB8023DB039E423FD1FE231C
:102D48001B06FB185A1E9341043302AA1371002173
:102D58000C2205A804F032FB03AB019A0693A36882
:102D6800244FD3400122103413421BD1A0235B040B
:102D78009E4217D11F232B40C133FF3369099B00A3
:102D8800002935D1A021C9055B5813420AD102ABED
:102D9800DE1C32002900200001F0FCFA164B984294
:102DA80019D004962900200005AA01F09DF9B8421F
:102DB8001CD101222900200001F056FBB3E7C022F4
:102DC8000323D2049742C0D0FE231B06FB185A42A5
:102DD80053410133B9E73100200001F03DFBB8420F
:102DE800DFD00C2000E0862040429DE71620FBE75C
:102DF8001B68FFDE0000AD0B0400AD0BF0B500242E
:102E0800456887B02B6800AF7861A34214D16E463D
:102E180088B003686A46936180239B003649938390
:102E2800364B51611361E2212300354810324901C4
:102E3800FEF7DEFDB546133C2B68002B25D120009C
:102E4800BD4607B0F0BDD0225203534035E0012102
:102E580023002C4A2A4803F007FEF0E77A696C46FB
:102E680088B011686A46916180218900264891835B
:102E7800224950611161E221214810324901FEF7CF
:102E8800B7FDA54613246442D9E70026B442F9D118
:102E98006C68F300E418206804F0BFF8031EDDD066
:102EA80020682179E3888268BA6002699446012221
:102EB8001342C8D1B022520313430124134A8C4051
:102EC8001A407A60624612683A61A243FA600122A7
:102ED800134202D03B692343FB606346FA681A60D9
:102EE800BB687A681B689847041EB0D12B68013606
:102EF800B342CDD8A3E7C04651B900000300000192
:102F0800B87600007CB900009BB90000FFFFEFFF16
:102F1800F0B5890085B043180393039B834202D11F
:102F2800002005B0F0BD0F247F250821082607687A
:102F38007B0A1C403D40194033425BD1344B1B5D3A
:102F480002933B0C7F2D3DD0052B2BD0062B44D173
:102F5800A2230E00DB00D5500191802304689B0159
:102F68001C4202D00123002601931F236D093B4018
:102F7800002D47D1A021E405C905A40F9B005B18CB
:102F8800A1008C460299E0270C026146FF00DD593A
:102F98000C4320490D4001992C43344349002143F7
:102FA800D95118E01C4BD550012301931A4B6C09D9
:102FB80025D101263400AC40A446A0246146E4058E
:102FC800E150CAE7052B13D0062B0DD1A223DB0055
:102FD80001214942D15004309FE7042B0DD1A12390
:102FE800DB00D5500191E1E7042B06D1A123EEE7E0
:102FF800094BEDE71620404293E78620FBE70022C5
:103008001A60FFDEC133FF339B001B68F9E7C04637
:10301800C6B90000F0F8FCFF0C050000F0B54568E3
:1030280087B02B6A00AFFB60142306690021F8689B
:10303800FA1803F0B8FE041E1ADB7B69FA681979DE
:1030480012681868FFF764FF041E11DB696A4B1CDD
:103058001AD02800283000F01BFB030004001333AB
:103068000AD10121334A344803F0B0FE13246442E4
:103078002000BD4607B0F0BD431D05D101212F4AF0
:103088002D4803F0A3FEF3E7EB699847B568F268AB
:10309800B368D2009B189D4204D3300003F0CDFEE4
:1030A8000024E5E7286803F0B8FF031E16D12A6854
:1030B8006C468AB0106829796A46D16180218900F6
:1030C8001F4D11841F4955619061116191211A4862
:1030D80010328901FEF78CFCA546C7E72B792868D2
:1030E800E988BB60836801249C4603697B60D02320
:1030F8005B034B40214202D1B0235B030B43012405
:1031080011497A681940396011680122F960B96873
:103118008C40F968A143134201D0F96821437B68C8
:103128003A6819606346B9681B689847041E9FDBB4
:103138000835ACE7CEB90000E0760000F9B9000028
:1031480016BA000004000001FFFFEFFFF0B504000D
:1031580025694068AB6C296D85B0002B23D11A0016
:10316800002915D00B006E6CA9650192EA6C0096D7
:103178000292002A24D0002900D0190003910022CD
:10318800694601F04DFC0F4B98420AD00522524285
:10319800246922632000203002F02EF800235C34DA
:1031A800237005B0F0BD6E6C002902D08B4200D9A7
:1031B8000B003200571EBA415242AB651A40D4E7A1
:1031C8001100DBE70000AD0B70B503780C00002B95
:1031D8000DD18D6D002D0BD14B6D1C6974235B4295
:1031E800236320005C34203002F006F8257070BD9F
:1031F8008B6C002B06D09D4213D90121214A22480D
:1032080003F0E4FD236DA26D002B06D09A4220D96D
:1032180001211C4A1C4803F0D9FD606DFFF796FF99
:10322800E5E75B1B8B640ED10A0020004B6B48322C
:1032380008334B638B6B3430013B8B63383103F0BD
:10324800D0FD6064DEE74B6C002BDBD05B194B6470
:10325800D8E79B1A23650FD1220021002000E36BD9
:1032680050320833E363236C4031013B23643C3024
:1032780003F0B7FDE064D0E7E36C002BCDD09B18DA
:10328800E364CAE73ABA0000E0760000F0B58FB010
:1032980000AFBB604368B961FA607B608B8805004A
:1032A80006699B0438D4300001225242D3171030EB
:1032B80001F0C4FFBB6973602B697B616B683B617C
:1032C8007B695D331B78002B05D07B69BA691B6865
:1032D8009A4200D1E0E0BB6980229B8812019C469B
:1032E8006146134011421FD00121C24AC24803F06F
:1032F8006DFD8624644233689A88802311009B01FF
:1033080019401A4204D171603000103001F074FF86
:103318002000BD460FB0F0BDB369002BC3D1736860
:10332800BA699A42BFD1C7E7012162460A4214D05E
:103338006C4688B029686A46916180218900AF4847
:103348009183AF4950611161E221AB4810324901C4
:10335800FEF74EFBA5461624CCE76346A94A1B0791
:1033680005D463465B059B0E082B04D0A64AA248E9
:1033780003F02CFDEFE7BB691B68FB61FA69A34BFF
:103388009A4201D8A24AF2E72423F81801003B69BF
:10339800083315CB15C105CB05C19E4BFA699A4276
:1033A8005AD99D4B9A425AD99C4B9A425AD99C4B0E
:1033B8009A425AD99B4B9A425AD99B4B93429B416A
:1033C8008022D20513409B186246FB6204231340F7
:1033D800920750D55A1E934102333022BA181370FF
:1033E800634601223121A1241B09134079180B706F
:1033F8003B69E4001B6818596346D3401900114023
:1034080039604109F96111008140A020C0051342CB
:1034180035D1FA69854B002A00D032E1C1507B6969
:103428005D331C001B78002B04D0386901F0B8FA12
:103438000023237024217E4A7B693869791801F0BA
:103448007FFA7C4A030090421FD001217A4A6A48D9
:1034580003F00AFB05244DE780239B04B4E780238F
:10346800DB04B1E780231B05AEE780235B05ABE7F0
:1034780080239B05A8E75A1E9341DBB2ADE7FB69A1
:10348800002B00D000E10151C9E701227B695D33BF
:103498001A707B69BA691A60330001225C331A70AA
:1034A8007B68596A4B1C0AD07868283000F01EF9EE
:1034B800743004D10221614A4F4803F087FCFB684D
:1034C800002B75D173630023320031003000B363E1
:1034D80048323831343003F084FCBB687064002B08
:1034E8006ED1F36300233200310030003364503270
:1034F80040313C3003F075FC0023F06430683363DE
:1035080098420AD08368002B07D00121083003F0C5
:103518007DFC3368186903F079FD2800FFF716FE73
:1035280000231A00B06B824252D100200200346C92
:10353800A24254D1984200D21800FA235B015843A2
:1035480033681968FCF7C0FD33000021C830203308
:10355800FB61C203430C3A4880185941FA22002300
:103568009200FCF737FE02000B00F86901F066FED6
:10357800002869D00121334A1F4803F027FC0024A2
:103588007868B46501F00CFA330074225D331C705E
:103598002C69524222632000203001F02DFE0023C6
:1035A8005C3423707424F86901F06EFE64424FE0C5
:1035B800FB681B687363002B85D0FB685B6883E737
:1035C800BB681B68F363002B8CD0BB685B688AE719
:1035D800716BD4000919496801325B18A3E7F16BD4
:1035E800F961D1008C46F969013261444968401893
:1035F8009EE7C04658BA0000E076000072BA0000A4
:103608000300000194BA0000B3BA000047E80100C3
:10361800E2BA00008FD003001FA107003F420F004D
:103628007F841E00FF083D00FF117A000C05000092
:10363800D13100000000AD0B13BB00003ABB000005
:10364800E703000064BB0000346B2300743396D09A
:103658003368002B00D14EE69A68002A00D14AE66A
:10366800998880220D0052011540114200D042E68F
:10367800186903F0CBFC30682900083003F0C6FB5A
:1036880039E63A681A60FFDE00232360FBE7C0468C
:10369800F0B587B06B469A1C01230F000221137006
:1036A80001AB1970694600240331049305000291A7
:1036B8000392059400F0D0FE0B4B060098420FD100
:1036C8003900280003AA00F00FFDB04205D06B4670
:1036D8002800D97800F0B8FE053C200007B0F0BDFE
:1036E80013246442F9E7C0460000AD0BF7B50D009E
:1036F800060003F058FC1F24019000222900300026
:1037080000F0B2FE2C406B092BD1A023E021DB0591
:10371800A400E418C9006258144B1A400C23134340
:10372800635003F0B6FB07003368019A9B181B68C7
:10373800002B0ED000272900300003F030FCE021D8
:10374800C9006258094B38001A40042313436350D8
:10375800FEBD03F09EFBC01B0628E5D974277F42F7
:10376800E9E7C134FF34A4002368FFDEF0F8FCFF6A
:1037780070B50124050084400948E14303F008FEC0
:103788008023C2225B02AB40064992008B50BFF3F4
:103798005F8FBFF36F8F0440631E9C41E0B270BD22
:1037A800F407002000100140F8B5104B00271C68F2
:1037B8005D68101B0600A4197D4111021C605D6044
:1037C8000B4B090ACA18C0231B049A420AD2094B98
:1037D8003D001C68230A22060C0012196B41064999
:1037E8000A604B6002F030F9F8BDC04610060020B0
:1037F8000000E0FFF80700201806002070B504005C
:10380800002916D00125290081400A4803F0B3FD9C
:103818008023C1225B02A3400749920007488B50CE
:1038280003F09BFDE040284203D08022044B920223
:103838005A6070BDF407002000100140F007002016
:10384800FCE100E010B50F4B19680B0A0A06BFF33C
:103858005F8F0D480D4944580021200080185941B8
:1038680080235B039C420CD2094B1A685B688B422D
:1038780002D806D1824204D980220023520480183B
:10388800594110BDF8070020001001400405000050
:1038980018060020F0B587B01F000EAB16001D7883
:1038A8000400FFF765FF0490FFF7CCFF02000B0050
:1038B8008F4203D800D06AE0864268D930003900C8
:1038C800801A99410A1E50D180231B0498424CD873
:1038D800384B22019B189A68DB68964201D19F42B7
:1038E8005CD033021B0A029380235B02A34003933C
:1038F800D2233149039A9B00CA5023000022503337
:103908009B009BB25B181A60029A019394460322AB
:10391800009222005132FF329200059262460598C9
:103928001202120A0A50D122039892008850234AA0
:10393800234B885803225242121A62441202120A76
:103948009A422BD9019B1A68002A17D01B4A029B5E
:103958008858C21A80231202120A1B049A421DD9DF
:103968000022019B1A6095420AD016256D4220005C
:103978000499FFF743FF280007B0F0BD002DF4D1EC
:10398800009B1A009C46013284440092C6E7002D31
:10399800EBD101210B48A14003F0EDFC054B0C983D
:1039A80021015A18C8500D9B00259660D7605360B6
:1039B800DDE7C046000600200010014004050000B5
:1039C800FDFF7F00F00700207FB5C2221C4D1D4B74
:1039D8009200AB504032AB50A1230024012040425A
:1039E800C117DB00EC50184B80229860D960C123C6
:1039F800022680219B005202EA50EE50134A853B72
:103A0800FF3B8902D150123001212200FEF762FDEE
:103A18001120FEF735FD01230D4A200013600D4AE1
:103A28002B6013600C4B0D4A009302940023019401
:103A3800FFF730FF3000FEF703FF200004B070BD31
:103A48000010014003000F000006002000E100E024
:103A580008100140F4070020B1370000FFFF7F0085
:103A6800C123F0B52B4D9B00EB5885B09B0709D5BA
:103A7800294B1A68002A05D000221A60274A1368C1
:103A880001331360C1239B00EB58DB0322D50221CD
:103A98002348494203F07CFC224CC00702D4236827
:103AA800002B17D000232360FFF7CCFEEFF310871D
:103AB80072B61D4EB268F36802920393039B8B4261
:103AC80003D809D1029B834206D9002F02D162B6DE
:103AD800BFF36F8F05B0F0BD736800209C460122CC
:103AE8005242D317B260F360D22380229B00520265
:103AF80031683060EA502060874202D162B6BFF375
:103B08006F8F0029E6D0634600200093029A039B3A
:103B18008847DFE70010014004110140F807002042
:103B2800F00700204011014000060020DFB5040026
:103B3800431C03D080231B04984201DB0F4C02E096
:103B4800002800DC0124FFF77DFE0D4B1E685F682E
:103B58008023801B1B04984202D224189C4200D365
:103B6800064C002022000300064992197B4102906E
:103B780001900091FFF78EFEDFBDC046FFFF7F007A
:103B880010060020B137000010B5FFF75BFE024BAE
:103B98001B68C01A10BDC0461006002010B5FDF7FE
:103BA8000BFE04480121044A02F057FF0020FEF7EB
:103BB800CBFBC046A8760000A4BB000010B51F4987
:103BC8000B68DBB2012B38D11D4A13681B061B0F8B
:103BD8000D2B0AD81B48C35C002B06D01A4B1B4878
:103BE800186080201A4B0002186013681B061B0F10
:103BF8000D2B0DD81748C35C002B09D08020C1239A
:103C08000124DB00C005C4500B68DBB2A34214D109
:103C180013681B061B0F0D2B03D80F4AD35C002B10
:103C28000BD00E4B1A68012A04D00D4A1A601A6884
:103C3800012AFCD1C0220B4B1A6010BDE00F00F026
:103C4800E80F00F0DDBB000004050040DFFF07C0FF
:103C5800186C0040CFBB0000C1BB000000EC064060
:103C68007593000014EC0640F7B505001F27019175
:103C78002E68002E12D03000FCF76EFA3C1AE4B21F
:103C880001233200A340310028009A4303F038FB97
:103C98000028EDD0019B02481C70FEBD0148FCE7DE
:103CA8000000AD0B0200AD0B70B503680125CB40D9
:103CB80004002B420AD18D4021680A0020002A43C3
:103CC80003F01EFB0028F7D0014870BD0148FCE74F
:103CD8000000AD0B0400AD0BF7B5041E02D001289F
:103CE80026D0F7BD8022C2230221D2059B00D150E5
:103CF80001220600284B1A60284B186001236A46E7
:103D08008027274DD371FF05002C1ED0012CE8D148
:103D18008021244A4902BB580B40002E38D1002B81
:103D2800DFD00120013D03F0BBF8002DF0D1D8E72A
:103D38008022C223D2059B00D05000221A4B186063
:103D48001A4B1A606B46DE1DD8E783238022DB00FE
:103D5800FB5852021340002E08D1002BC1D001207D
:103D6800013D03F09DF8002DEFD1BAE7832203212E
:103D7800D200BA580A403270002BB2D06B46D879BC
:103D88000128AED1013D03F08BF8002DBCD1A8E786
:103D9800BA582240EFE7C0460C000040040100403A
:103DA800102700000C04000004000040000100403F
:103DB800054B1A79002A04D11860013203481A7198
:103DC80070470348FCE7C046FC0700200000AD0B25
:103DD8000C00AD0B10B5094B1B68002B06D000205A
:103DE800FEF76AFB002801D1FEF74AFB8022A323D5
:103DF8000221D205DB00D15010BDC046FC070020CF
:103E080010B5002802D0012843D010BD802383229A
:103E1800DB05D20099589A58C90321D503231340CA
:103E2800022B02D00020FFF757FF8022A323022095
:103E3800D205DB00D0500822822380245B00E405F1
:103E480012191B190021012419601460154A1268FF
:103E58008A4221D08022C123D2059B00D050D4E7CA
:103E6800114A9A58D207E0D50321104A9A580A40B5
:103E7800022AD7D10B490968002906D10C4B1A68C8
:103E8800002AFCD000221A60BFE7C12189005A50DD
:103E9800BBE700228023D0E71A68002AFCD019600B
:103EA800B3E7C046FC070020140400001C0400000F
:103EB8000401004010B5104B1A68002A0AD00020EF
:103EC80080221860C22301219B00D205D1500B4BE0
:103ED8001B6898470A4B1A68002A0BD000221A6000
:103EE8008022C22302219B00D205D150034B01201E
:103EF8001B68984710BDC04600010040FC07002021
:103F080004010040030070B508330B4D5B005B5B98
:103F180004000E00DA0506D5DB041B0FDB00EA18E7
:103F280052685B599847AB68002B03D031002000DA
:103F3800EA68984770BDC0467000002070B58024BC
:103F4800C0B2114A08304000835A6400234219D095
:103F58000E4E590A0F25334083521600002029407F
:103F6800338A234203D05B0A2B4099420AD001309E
:103F780002362028F4D10020CB00D050C9B2044822
:103F8800FFF792FE70BDC04670000020FFE0FFFF03
:103F9800C8000020F7B50400002001260300070030
:103FA8000191019A934209D10D4B1A68002A04D055
:103FB80000221A6080231B061843FEBDFF22190049
:103FC800350011408D408A002900254206D0054D54
:103FD80052191568002D01D0176008430133E0E736
:103FE8007C61004000610040C0B2074B08304000CF
:103FF800C05A830604D5400B80000130FF3070475B
:10400800BE204000FBE7C046700000200200080008
:1040180010B5C3B20E4908335B005B5A990612D536
:10402800990710D401215B0BC220994014688000C5
:104038002150A221032012689B00D318C9005A58A6
:1040480082435A5010BD002102F08BFFFAE7C046A8
:10405800700000200122F0B5CBB208331D4E85B0A8
:104068005F000193BB5B05000C0013422FD0FFF7E4
:10407800CDFFBB5B9A061FD500215B0B45332A6831
:10408800FF339B0099502000FFF758FF0022019B47
:1040980003A85B00F252039402F00AFFE021039B9D
:1040A800C9009B00C01842580B4B1A400223134307
:1040B80043500A4805B0F0BD07210120214088403F
:1040C8000100074AE308D05C8843D054DBE7054881
:1040D800F0E7C04670000020F0F8FCFF0000AD0BD0
:1040E800D00000200400AD0BF0B5136805000E00E9
:1040F80017009C468BB0002B1FD0CCB222215E4A01
:10410800083464000392A25A0A408A4228D00F2237
:10411800002006AB1439D218C9181070087063460D
:1041280001900090300002F0CEFE039BE25A022379
:104138009A43013B1343039AA3527A68002A39D061
:10414800F1B24D48083107914900049101000390EC
:1041580004981378415A5268880703D5002A54D026
:1041680046482BE046480140059104980399059C70
:104178004452002A49D0032BF2D87A682968526839
:1041880012789446002B1BD14532FF3292005350CF
:1041980007200124304084403A49F208885CA04353
:1041A80088541C24079A34495000425A9B00A24361
:1041B80013434352BB68002B34D133480BB0F0BDD6
:1041C80094000A190692A2220699D200885803215F
:1041D80088430699885028683502001981582B4C65
:1041E80021408150F8214901845829401D04294360
:1041F8002143815062460599520311430A00202148
:1042080004980A4303994252C2E71E49F20850181B
:104218008A5C002BBCD0072401213440A1400A430A
:104228000270BEE73000A0CBFFF788FE002DC4D097
:10423800114C22686368954203D19F4201D1002244
:104248000BE00F2306AA9B1819001148FFF70CFD75
:104258000D4B9842B2D106ABDA7BD300E550E31898
:104268005F60F3B208335B00E15A520211438022C7
:1042780052000A43E252A0E7700000200400AD0B90
:10428800DF1F0000D00000200000AD0BFFE0FCFFA6
:10429800C8000020F0B589B004900C0010001D0083
:1042A800002A21D0CFB2334B08377A00D35A9A0765
:1042B80001D49A0622D4DB065B0F02D04378012B87
:1042C8001CD00F2104ABC91800260123421C0B7017
:1042D800831C00900196200002F0F5FD0322254B77
:1042E8007F00F95A0A43FA52002D41D0E2B2214B1D
:1042F80008325200D05A0393830702D41E4809B0EB
:10430800F0BD2B78049900260F6819004531FF315C
:104318008900CE511949084003998446505269785A
:10432800B14225D0A8789D0005900498144F0068E4
:1043380024024019A225ED00465909043E40465181
:10434800F82676013440C026B60231408026214343
:10435800059C76032405475934402143394341518C
:1043680061465B0319430B0020210B430399535209
:104378000448C4E7700000200400AD0BDF1F0000F4
:10438800FFE0ECFF0000AD0B014B9960DA6070476D
:1043980070000020C9B2064B08314900CB5A990673
:1043A80003D55B0B0348137070470348FCE7C0460E
:1043B800700000200000AD0B0400AD0BF8B5194BE0
:1043C80004001E78184D002E2AD1402231001748CB
:1043D80002F0F4FF3100FF2024682A6D8A4214D1CC
:1043E800230000227D33FF33200B1A6040B2FEF712
:1043F80047F8C12380229B001206E2502A000123BD
:1044080064320B481370AB65F8BD0B0003409B008A
:104418005F1CFF377C2B01D1E7193E600131DDE7D6
:104428000448F1E7D400002070000020800000203C
:104438000000AD0B0C00AD0B024B1878431E9841E1
:10444800C0B27047D400002010B50248FFF72CFC1A
:1044580010BDC046C400002010B50248FFF704FC98
:1044680010BDC046C400002073B50C00E3B21D495E
:1044780008335B005B5A99061BD502211E000E40CB
:104488000B4216D15B0B9D0001686C1CFF340919A7
:104498000E60A22601210468F6006419A5590D438F
:1044A800A551002A04D09940C12302689B00D1502D
:1044B80073BDDB0603215B0F042B0ED00139052BDE
:1044C8000BD001A8019402F0F3FCA223DB00C15831
:1044D800019BD940012319400231200002F041FD1F
:1044E800E6E7C04670000020C123F0B56B4A9B0088
:1044F800D35880200F226A4C1340000687B0216DE4
:104508001843FFF747FD0190002800DBAAE00023CD
:104518005C340593636822780093110001231940E5
:104528001A422CD0A022A223D205DB00D35805932F
:10453800009B002B25D101225A4B594D1B78134261
:1045480006D02B6E1E000093059B0293002E64D1AB
:104558008020296D0006FFF71DFD0121EA6D059BEE
:104568000A427BD0A021A222C905D2008A589342D0
:1045780074D000995340194000910592D8E70091F2
:10458800D6E70098FBF706FE01238340009A040053
:104598009A4300920200424B08325200D65A02F067
:1045A800EDFC05AAE308D35C072222400727D34085
:1045B8000122B60805003740134215D10328B7D1A8
:1045C80076071ED520003900FFF79CFC200002F07A
:1045D800D5FC8542ACD12000002102F0C2FC2900A4
:1045E800200002F0BEFCA3E70228A1D17607E9D497
:1045F8000321200002F0B5FC3B00AB43012B97D10F
:1046080006E00221200002F0ACFCBB1E012B8FD873
:1046180039002000FFF776FC8AE73000FBF7BAFD87
:1046280001278740FB4304000393BE4302F0A6FC26
:10463800002889D00722083464002B5B9B081340AC
:10464800052B04D1029B039A134005937CE7042BA6
:1046580000D079E7029B1F43059775E7019B5B0034
:104668005B080193A2240125E400019B002B01D1E2
:1046780007B0F0BD0198FBF78DFD2B008340019A30
:1046880080009A43054B0192C31818591959C00460
:104698008903890FC00EFFF735FCE6E7006000408C
:1046A80070000020CC00002030B580240123044D88
:1046B800E4002A591A42FCD00160BFF35F8F30BD75
:1046C80000E00140802310B55B0519690400FBF781
:1046D80037FD002919D10E4B0E4A023199500E4967
:1046E800086801300FD009688C420CD2A221C90099
:1046F8005C5080240121E40018590842FCD00021B4
:104708000648995010BDA121F1E70548FAE7C046CF
:1047180000E0014004050000001000100000AD0B8F
:104728000A00AD0B012370B5034D044C2B51FFF764
:10473800BBFF00232B5170BD00E0014004050000C1
:1047480007B5019001A802F041FC0123019A9340AA
:10475800014A835007BDC0460C05000073B5A3236A
:104768006A46DB00C3588C69DBB2D3710B6A073227
:10477800A34202D214784A69D4540B6A4C1D5E1CB9
:104788000E62E47F0A690233002C06D0934200D2FD
:104798000B618A699A4200D98B610D699D4205D9DE
:1047A800CA68D25C084BC250012076BD8C699C4215
:1047B80001D9CA7FF6E701221000AE4202D3A64211
:1047C800804140421040F0E71C05000007B5019009
:1047D80001A802F0FBFBE021019BC9009B00C01867
:1047E8004258034B1A4003231343435007BDC046A6
:1047F800F0F8FCFFF7B5CB7B05000C00002B38D197
:104808000B7B0878012B00D975E0FFF799FF237817
:1048180001A8019302F0DAFBE021019BC9009B008B
:10482800C01801234258374F3A4013434350607829
:10483800FF2804D0FFF784FF6078FFF7C7FFA3784D
:10484800FF2B0ED001A8A67B019302F0BFFBE0224C
:10485800019BD2009B00C0188358B6003B401E4302
:104868008650E078FF2804D002F0BBFBE078FFF721
:10487800ADFF28232879244A4343E178D318997750
:10488800237C002B13D16078FF2801D10138FF3831
:10489800A378FF2B01D1013BFF3BA126296827788C
:1048A800F6008F51194E8851A220C0000B5029687C
:1048B800A068174BC850637B217B5E1EB3412868F4
:1048C80002291BD003291BD0012901D101310B4337
:1048D8001049435028212B7960794B43D318D87756
:1048E8002B7959435358002B04D02868000B40B249
:1048F800FDF7C6FDF7BD02F074FB88E70421E6E783
:104908000621E4E7F0F8FCFF040800200C0500008D
:10491800240500005405000007B5019001A802F025
:1049280055FBE021019BC9009B00C0184258034B6E
:104938001A4002231343435007BDC046F0F8FCFF5A
:10494800F7B5282701930679124C77430500E0193B
:10495800037F002B1BD1019B3A514360002909D0EA
:10496800CA7B831DDA77CB7883774B79C3772800A6
:10497800FFF740FFA02301222968DB00CA50282343
:104988007343E4180023044863772277FEBD034885
:10499800FCE7C046040800200000AD0B0C00AD0B7E
:1049A800282370B506791C4C73431B590568002BE6
:1049B80007D0280B40B2FDF76FFDC22304229B00ED
:1049C800EA50A0230022DB00EA5028237343E318AF
:1049D8000633DB7F934219D1A123DB00E858FFF7A8
:1049E8009BFFA223DB00E858431C01D0FFF794FF8C
:1049F8000A4BE858431C01D0FFF78EFF2823734366
:104A0800E318987FFF2801D0FFF786FF2823734318
:104A1800E4180023237770BD040800200C0500006B
:104A2800F0B585B00390029203790D000193282315
:104A380001993A4C59436218507F002800D06BE026
:104A48000959002901D001215177019A29005343BE
:104A5800E3181A000C32C1C9C1C2096811600021EB
:104A68005A1DD177987FFF2801D0FFF769FE029A77
:104A78002823002A07D0019A294853430022E31823
:104A88005A7705B0F0BD039A04211668019A3700D9
:104A98005343029AE3181A62C2229200B150029A52
:104AA800FC37FA606A68002A15D02B681B781D4A03
:104AB800B3506B68012B10D92B685B78B35028234F
:104AC800019A5343E258002A10D0C12304229B00C4
:104AD800F2501548D5E7DB7FE9E7EB68012BEED903
:104AE800282301994B43E318DB7FE7E7E518FB68C8
:104AF800002BFCD0002329003000FB60FFF72EFEBE
:104B08000028F4D12823019A5343E418A07FFF28F2
:104B1800DFD002F066FADCE70448B2E704080020B8
:104B28000300AD0B1C0500000000AD0B0B00AD0B26
:104B380070B500250A4B0B4C0B482100DD60FFF7D0
:104B48000DFEA8420AD1A07FFF2801D002F049FA41
:104B580006482368616865772572984770BDC04626
:104B6800FC40004004080020004000400C080020E1
:104B780070B5124CA8220021200002F01FFC03236C
:104B88000F4A236163610F4BA261E3618023DB005D
:104B980023620023A3626362E36222660A4A0B4827
:104BA80062661022A2662367E36663670F331D00FF
:104BB800C15CEA1AA154013BFAD270BD2C0800204E
:104BC800EBBB00002C0900201C090020F4BB0000EE
:104BD800F0B50F0014001821020085B003900130D1
:104BE8004A4341431C4EB2187618556A7068936A56
:104BF8004019AB4229D8126A0192521B0292013A1B
:104C0800944205D82200390002F0CFFB2D1912E09A
:104C18009A180021944215D83900029A02F0C5FB6F
:104C2800019B2C19E51A9C4205D0029B2A0070684A
:104C3800F91802F0BAFB18220399074B4A430121DD
:104C48009B185D62080005B0F0BD013B00215B1BAD
:104C5800A342F7D3D6E7C0462C08002018224243C7
:104C6800024B9A18936A506AC01A70472C080020A1
:104C780010B501225242D317014800F045FA10BD81
:104C88002801002010B5024800F004FA10BDC04603
:104C980028010020F0B585B005000C0000AFEFF347
:104CA800108372B62D4A7B609368FB602C4B0428F6
:104CB80002D82C4B8100CB586E468AB0117C6A46CC
:104CC800D361294B29489384294B5061956111621E
:104CD8001361B121274B1032BB60B86800238901EA
:104CE800FCF786FEB546002C07D0E369DB0504D047
:104CF8000121214AB86801F0B0FEFB68002B07D0FB
:104D0800180002F0A8F9002802D00378002B00D17F
:104D18001A486E468AB06A46194BD0615361FB68DF
:104D28009361114B1384174B136191210023114890
:104D380010328901FCF75CFE2100B5462800FEF719
:104D48002DFF7B68002B02D162B6BFF36F8FF86826
:104D5800FDF71AFBBD4605B0F0BDC046D8080020D7
:104D680005BC0000F4780000010300001BBC000033
:104D780005000001D076000043BC000013BC000011
:104D880064BC000004000001F7B50127124E83003F
:104D980001309C5983000193019BF358A34200D82A
:104DA800F7BD65682368002D13D0002B0BD02800B1
:104DB8009847002807D0C2178018EB685040FF2892
:104DC80000DDFF201870EA6853783B4353700834BD
:104DD800E2E79847FBE7C0460879000010B50124D0
:104DE800094B03201C70FFF7CFFF00F05DFF042084
:104DF800FFF7CAFF00F010F9FBF7A0FD034A137B89
:104E0800A343137310BDC0462C0D0020900600204C
:104E180010B5034A03480021121A02F00BF910BD1D
:104E2800300D002050010020F0B570270F25040038
:104E3800474301021348012609180020802287B041
:104E4800039505356543104B0590029001900F4876
:104E5800FF182D18B24038000D4B0496009500F04D
:104E680077F804227B7B2C7493437B73A419094B3A
:104E7800E402E418EF606C600748310002F053FA6E
:104E880007B0F0BD3018002020060020D808002008
:104E98006370000030100020D4080020F0B5002016
:104EA800A3B0FFF771FF224B83F308882149224BF7
:104EB8000A6A00251A40C0231B0413430B6201F041
:104EC8002DFEFDF75BFBFCF7E5FB02221B4E06AB54
:104ED800FF329A81B3601E9502F09EF80120FFF719
:104EE80053FF0220FFF750FF00F02EFC144C154B27
:104EF8007461802205930123134E14490493D20050
:104F080033002000039502950195009500F020F8E4
:104F180004220700637B20009343637302F0F8F8D0
:104F28002800FFF781FF320039002000FDF712FB4F
:104F38003018002000ED00E0FFFF00FFD808002037
:104F480090060020C6BC0000E54D00003019002086
:104F5800F0B587B00593030058338365C365109B8C
:104F68000727037304230025437307320F9BBA43B3
:104F780083738B180E0085601900C5738561C56140
:104F880004000493FDF7D4F8049BC019B8431F1A12
:104F98000E9B3A0002930D9B310001930C9B20005D
:104FA8000093059BFDF7C0FA044B65659B68AB420F
:104FB80000D01B6E3800236607B0F0BDD80800206B
:104FC80070B50400002086B005900E98119D0490DD
:104FD8000D98109E03900C9802900B9801900A98D7
:104FE80000902000FFF7B4FF2B00721C01D10133A1
:104FF80005D02B00334305D1200000F065FB2000CD
:1050080006B070BD200032002B000249183000F0B5
:10501800ADFCF4E7BD71000070B51B4C86B02600EE
:105028001A4DAC4207D300F069FBAE4219D300F029
:1050380075FB06B070BD636A0593236A0493E36940
:105048000393A36902936369019323690093E36857
:10505800A26861682068FFF77BFF23685C653034CD
:10506800DEE7B26AF36A511C01D1591C05D0110060
:105078003068194303D100F027FB3036D5E70449DF
:10508800183000F073FCF8E7987600009876000076
:10509800BD71000070B583680400002B2AD0184A3F
:1050A8009268934229D1C368012B03D9013BC3609D
:1050B800002070BDEFF3108572B60169806801F0B9
:1050C800D3FF200002F091F8A06000280BD00E2337
:1050D800C35623610023C36602F01AF82900094861
:1050E80000F0DCFAE4E7E060002DE1D162B6BFF33E
:1050F8006F8FDDE716204042DBE70120FBE7C04663
:10510800D80800202D0D0020F0B585B004001F0040
:105118000392EFF3108672B6C368354A002B0ED09F
:1051280080689168884217D0039B3B431AD1002EB0
:1051380002D162B6BFF36F8F102040420AE0916837
:10514800897B49B20133E36093682161A360002E33
:1051580004D0002005B0F0BD2169F3E762B6BFF3C3
:105168006F8FF6E70E23897BC35649B2994200DD5B
:1051780019000A007F3201DA7F21494200258B425B
:1051880002DD01F071FF05001A4B22000293039B18
:10519800310002980093019700F022FA0028D8D035
:1051A800EFF3108672B6A068002819D02368216929
:1051B8009C420BD0002B09D09B7B5BB2994200DD4F
:1051C80019000B007F3301DA7F21494201F04CFFBF
:1051D800002805D03100029800F060FA0B20ACE7F7
:1051E800002DF7D1002EF9D162B6BFF36F8FF5E726
:1051F800D80800202D0D002070B50400EFF31085AD
:1052080072B601F0F2FF002808D00023C36601F04F
:105218007FFF2900084800F041FA70BDA268E368E2
:105228009B1A591E8B419B18A360002DF5D162B6BD
:10523800BFF36F8FF1E7C0462D0D002013B50400B2
:10524800EFF3108172B68068002808D00138A0609A
:10525800002902D162B6BFF36F8F002016BD10007F
:10526800184307D1002902D162B6BFF36F8F10200F
:105278004042F3E7009201932200024800F0B0F99F
:10528800ECE7C0462D0D002070B50400EFF3108543
:1052980072B60B267642200001F0A7FF002803D043
:1052A800C66601F035FFF6E72900A060014800F066
:1052B800F5F970BD2D0D0020C289030000207F2A5A
:1052C80011D80A4A106800280DD00E21084A5956EC
:1052D80012680020914206DB5A7BD20603D10548AA
:1052E800181A431E984101231840704700090020EE
:1052F800FC080020200600200121044B044AC01AA3
:10530800044BC0104343D1547047C04600070020E7
:105318002D0D0020ABAAAAAA70B518240C4B0500C5
:105328001E7C0C4B7443E418200001F0A9FF0022F6
:10533800094B28009A55FFF7BFFF002807D0074BF5
:1053480020001A680649013AD31700F00FFB70BD18
:10535800D8080020000700202D0D0020000900209B
:105368000153000070B50E4D0E4BAC699C4201D044
:10537800002C00D1EC68AB68002808D15A7BD20613
:1053880005D1A269002A02D1DA897F2A05D89C4270
:1053980002D02000FFF7C0FF23006B6170BDC0463C
:1053A800D8080020F00800200D2270B582560400AD
:1053B800437B002A04DA7F221340437301F06CFE1A
:1053C8008023627B5B421343134A637393691348D8
:1053D800834200D10023D169002B04D12060616091
:1053E8000C60D4610CE00E250E2665579E57B54219
:1053F8000DD0AE420BDD5968236061600C605C60C3
:105408009068001B43425841FFF7ACFF70BD9942BA
:10541800E4D01B68E0E7C046D8080020F008002068
:105428000D2370B5C356417B002B26DBCB0624D158
:105438008369002B21D1802252420A434273114AC8
:10544800114C9169A14200D00B00D169002B04D105
:10545800046041600860D0610CE00E250E264557B7
:105468009E57B5420AD0AE4208DD5A6803604260D2
:10547800106058600020FFF775FF70BD8B42E7D0C1
:105488001B68E3E7D8080020F00800200D2210B5BB
:1054980082560400437B002A04DA7F2213404373B8
:1054A80001F0FAFD034B9868001B43425841FFF78F
:1054B80059FF10BDD808002070B51D001600040063
:1054C80001F0FDFD2B00721C01D1013306D0200034
:1054D80032002B000249183000F048FA70BDC0466F
:1054E800BD71000070B504000D001026002A00D020
:1054F800083E637B33420DD1334360221900914348
:105508000A0049B2002911DB6273082E15D0012068
:10551800FFF728FF1B4B9B68A3422CD1EFF30583B1
:10552800002B28D12800FCF74BFF70BD1F22134029
:105538002000637301F0B0FDE7E7A368002B02D0F9
:10554800200001F0B1FD2000183001F099FE230081
:10555800A66D58339E42DAD0002ED8D0300001F024
:10556800A3FD3000183001F08BFE00233000F366F5
:10557800FFF756FFEBE7002DD7D162B6BFF36F8F69
:10558800D3E7C046D808002070B5EFF3108572B68F
:10559800104A114B94681868A04207D1FFF7BCFE67
:1055A800002D02D162B6BFF36F8F70BD0021196064
:1055B800127C0A4B9B5C8B42F2D02000FFF77CFEEA
:1055C8000028EDD0637BDB0602D12000FFF7ECFE5C
:1055D8002000E3E7D8080020F80800202D0D00205F
:1055E80010B509480C00094B110082681A60EFF3E6
:1055F800108372B6029A039B8068FFF75DFF200054
:10560800FCF7DEFE10BDC046D8080020F8080020D0
:10561800F8B50400EFF3108772B6437B4EB2DA0692
:105628001BD18569002D18D17F221340437301F0E7
:1056380033FD8023627B5B4213436373154BA67370
:105648009A6915498A4200D01500DA69002D0CD1F3
:10565800216062601460DC6112E00020A673002FF4
:1056680002D162B6BFF36F8FF8BD0E20285686426E
:105678000BD0B04209DD6B68256063601C606C600C
:105688000120FFF76FFE0120E9E7AA42E0D02D686C
:10569800DCE7C046D8080020F008002010B5002933
:1056A8000AD1EFF30580002807D1064B9A685B6999
:1056B8009A4202D0FCF784FE10BD62B6BFF36F8F2A
:1056C800FAE7C046D808002010B5EFF3108472B688
:1056D8000422437B134205D1002C02D162B6BFF3EA
:1056E8006F8F10BD93434373FFF79AFE2100024862
:1056F800FFF7D4FFF5E7C0462E0D0020EFF3108129
:1057080072B6054B9A68D37B013BD373002902D14B
:1057180062B6BFF36F8F7047D808002010B5EFF35B
:10572800108472B6074B00209A68D37B0133D37379
:10573800FFF718FE002C02D162B6BFF36F8F01F09D
:105748007BFD10BDD8080020024B034A9A61DA613C
:105758007047C046D8080020F0080020F8B5EFF3DD
:10576800108572B67F22194CA068437B134043739F
:1057780001F092FC8022A3685242597B14480A43E4
:105788005A73A269824200D10022E169002A04D139
:10579800186059600B60E3610CE00E260E279E57D7
:1057A800D757BE420DD0B7420BDD51681A60596019
:1057B8000B6053600120FFF7D5FD2800FCF700FEC1
:1057C800F8BD8A42E4D01268E0E7C046D808002055
:1057D800F00800200300F7B50B4304000D00002B70
:1057E80003D1FFF7BBFF0020FEBD4B1C2EDB4B1C7B
:1057F80001D1831C2AD301F056FD2718EFF310833B
:1058080072B6144E0193B068134B1860FFF73EFE52
:10581800B06822002B001149183000F0A7F81023B7
:10582800B2680198517B0B435373FCF7C9FD01F033
:105838003AFD00233A0004001D00121BAB41AB42A5
:1058480002DCD0D1AA42CED01000CDE702277F4299
:105858003F1BD3E7D8080020F8080020BD710000DE
:1058680010B50B000C00421C07D1013305D1094BC0
:10587800986801F059FC200010BD2100FFF7AAFF2D
:10588800FA220023C1179200FAF7E8FC4904C00B7A
:105898000843F1E7D8080020014B98687047C046D4
:1058A800D808002010B50648064A0749121A01F020
:1058B800C5FB064A0649074801F0C0FB10BDC046B3
:1058C800000000204C0100200CBD0000000000007A
:1058D8000CBD000000000020002010B5034B1B6821
:1058E800834201D1FEF750F910BDC04604090020DB
:1058F80070B50E4B1E689E4203D1FFF7EDFF0C48B2
:1059080070BDFFF7E9FF002EF9D032697369040012
:10591800C517121BAB41002BF1DC03D1802109060E
:105928008A42ECD2D843C0171040E9E7D8000020DB
:10593800FFFFFF7F30B500280ED00B4B5B68984205
:105948000AD00168002907D00A694B6904694569CA
:1059580012196B410A614B610368426813605A600F
:1059680000230360436030BDD8000020F7B5040071
:1059780016001F00531C01D17B1C57D0A160EFF308
:10598800108372B60193002F23DA7B1C01D1B31C5C
:105998001FD82B4B1868596802225242D317121A83
:1059A8008B41921BBB41002B04DC01D1002A01D1A1
:1059B80001220023234F226163613D68BD4200D16B
:1059C80000257E68002D0FD12760666034607C60FA
:1059D8001CE0FFF781FF0122002392197B4106009A
:1059E800C71792197B41E5E72869696922696369E4
:1059F800994202DC1BD1904219D9801A99416B68EF
:105A080028616961636025601C606C603B68BB420B
:105A180006D09C4204D1FFF76BFF0021FEF786F801
:105A2800019B002B02D162B6BFF36F8FF7BD121A2C
:105A38008B4122616361B542C6D02D68C2E7C0467A
:105A480018070020D8000020F0B585B0EFF31083C8
:105A580072B60293304B1860304B1C689C4200D1E0
:105A680000242F4B2C4D0393186859682B689C46CB
:105A7800002C39D062692669DB179A4202DC0AD108
:105A8800664508D91F00226963696646921BBB41B7
:105A98002261636128E0F31700960193009A019B45
:105AA80080185941002300221D4F2261636138602C
:105AB80079602000FFF73EFF029B002B02D162B6FF
:105AC800BFF36F8F2000A3689847EFF3108372B677
