:020000040000FA
:10000000101600209D400000AF400000B1400000ED
:1000100000000000000000000000000000000000E0
:10002000000000000000000000000000B3400000DD
:100030000000000000000000B5400000B7400000D4
:10004000B940000069690000B9400000B9400000F3
:10005000B940000000000000AF3E0000B9400000C1
:100060009B3E0000AD3E0000FB650000C93E000065
:10007000B9400000B9400000B9400000B94000009C
:10008000B9400000B9400000B9400000B94000008C
:10009000196C0000B9400000B9400000B9400000F0
:1000A000B9400000B940000000000000000000005E
:1000B0000000000000000000000000000000000040
:1000C00000F002F800F03EF80CA030C80838241800
:1000D0002D18A246671EAB4654465D46AC4201D180
:1000E00000F030F87E460F3E0FCCB6460126334274
:1000F00000D0FB1AA246AB4633431847D875000020
:10010000F8750000103A02D378C878C1FAD85207BF
:1001100001D330C830C101D504680C6070470000BD
:100120000023002400250026103A01D378C1FBD813
:10013000520700D330C100D50B6070471FB51FBDFB
:1001400010B510BD06F0D3FF1146FFF7F7FF03F01F
:100150005CFE06F0EBFF03B4FFF7F2FF03BC06F012
:10016000F1FF0000401E00BF00BF00BF00BF00BF86
:1001700000BF00BF00BF00BF00BF00BF00BFF1D184
:1001800070470000401E00BF00BF00BF00BF00BF9F
:1001900000BF00BF00BF00BF00BF00BF00BFF1D164
:1001A00070470000026882F308884368184700001F
:1001B000401E00BF00BF00BF00BF00BF00BF00BFA8
:1001C00000BF00BF00BF00BF00BFF1D170470000FB
:1001D00070B505460C46164602E00FCC0FC5103E22
:1001E000102EFAD2082E02D303CC03C5083E042EEB
:1001F00007D301CC01C5361F03E021782970641CA8
:100200006D1C761EF9D270BD02214B4A516000BFB1
:100210004A4909680029FBD04749886000BF47491F
:1002200009680029FBD00021434A516000BF4349BF
:1002300009680029FBD0704701223F4B5A6000BF7C
:100240003E4A1268002AFBD0016000BF3B4A126898
:10025000002AFBD00022384B5A6000BF374A126890
:10026000002AFBD070470122334B5A6000BF334A4B
:100270001268002AFBD0017000BF304A1268002AC1
:10028000FBD000222C4B5A6000BF2C4A1268002A77
:10029000FBD0704730B5014600200C46002307E034
:1002A0002278641CFF2A01D0012005E05D1CABB25E
:1002B0000125AD02AB42F3DB00BF30BD30B50446D3
:1002C0000D46002305E099020819FFF79DFF581C11
:1002D000C3B2AB42F7DB30BDF0B505460C4616465F
:1002E000002707E028462168FFF7A6FF2D1D241DE3
:1002F000781C87B2B742F5DBF0BDF7B581B0054693
:100300000E460398C01C87B2344612E0E07800061F
:10031000A178090408436178090208432178084359
:10032000009028460099FFF787FF2D1D241D381FD8
:1003300087B2032FEADCFFBD00E5014000E4014085
:1003400001B505E00098401E00900348FFF70AFF42
:1003500000980028F6D108BDE70300000146002000
:1003600080220A40002A01D00122104340220A4084
:10037000002A01D00222104320220A40002A01D084
:100380000422104310220A40002A01D00822104300
:1003900008220A40002A01D01022104304220A40F9
:1003A000002A01D02022104302220A40002A01D054
:1003B00040221043CA07D20F002A01D080221043E6
:1003C000704710B50420FE49C860002088600220F4
:1003D0000861FC494879FFF7C1FFFB490843F84928
:1003E0004862FA488862F7498879FFF7B7FF030641
:1003F000F449C879FFF7B2FF00040343F149087AD2
:10040000FFF7ACFF00020343EE49487AFFF7A6FF6F
:100410000343EB48C361EE48E94908620020C86223
:100420000120086300204861EA488861022048638F
:100430000846406B8007800F022804D1E648C86355
:10044000E64888630BE0DE48406B8007800F012898
:1004500005D1FF20DA49C863FF20083088630320F4
:10046000FFF76EFF10BD0020DD490860DD4908611F
:10047000D349403108600120DB49086100BFD948F9
:1004800000690028FBD00020D6490861704700B5FC
:10049000C220D6490870D64800784870D4484078C1
:1004A0008870D3488078C870D148C0780871D04827
:1004B00000794871CE48407988710120C8490860A8
:1004C0000020BF498860BF494879FFF747FFBE4910
:1004D0000843BB494862BB498879FFF73FFF0306E1
:1004E000B849C879FFF73AFF00040343B549087AD1
:1004F000FFF734FF00020343B249487AFFF72EFFAB
:100500000343AF48C361B348AD498861B748486009
:100510000120B549086000BFB24800680028FBD040
:100520000120B14988600020AE49C86000BFAD48D5
:10053000C0680028FBD00020AA4908610120AA4910
:10054000086100BFA74800690028FBD000BD7CB54A
:100550000346C22168460170A5480178684641708B
:10056000A348417868468170A14881786846C17087
:100570009F48C178684601719D4DE978CD0F6D188F
:100580006D106D004D1BA1267543994EF078C6176E
:10059000B60F3618B610B600861BAA19D50FAD18BF
:1005A0006D106D1CECB201208D49086010200860B0
:1005B0008348846069460878FFF7D0FE8249084383
:1005C0007F49486269464878FFF7C8FE05066946D4
:1005D0008878FFF7C3FE000405436946C878FFF733
:1005E000BDFE0002054369460879FFF7B7FE0543E3
:1005F0007348C561180241218904084318437049B2
:1006000088617A48203048607CBD10B504460020DF
:100610007449086001207449486000BF714800684F
:100620000028FBD000206F49C860C861486021469F
:1006300000F059F901206C4988600FE004E06D4832
:100640008079002800D003E06648C0690028F6D011
:1006500000BF68488079002800D003E06148C06886
:100660000028EBD000BF5648403080686049887150
:1006700001205D49886100205A49086101205A49DA
:10068000086100BF574800690028FBD010BD7CB549
:100690000346C2216846017055480178684641709A
:1006A0005348417868468170514881786846C170E6
:1006B0004F48C178684601714D4DE978CD0F6D18EE
:1006C0006D106D004D1BA1267543494EF078C6177D
:1006D000B60F3618B610B600861BAA19D50FAD187E
:1006E0006D106D1CECB201203D49086034488460F7
:1006F00069460878FFF732FE3349084330494862BB
:1007000069464878FFF72AFE050669468878FFF7AC
:1007100025FE000405436946C878FFF71FFE000266
:10072000054369460879FFF719FE05432448C5616A
:1007300018024121890408431843214988612B4844
:10074000486001202849086000BF2648006800284A
:10075000FBD001202449886000202249C86000BFE6
:100760002048C0680028FBD000201E4908610120F5
:100770001D49086100BF1B4800690028FBD07CBDF3
:1007800010B5002003F099FD012003F0E1FC0020EA
:1007900003F0CAFC022003F0B2FC642003F019FD50
:1007A000022003F0F6FC07480178002003F0C0FEA9
:1007B000044909790906034AD278120411431BE05F
:1007C000001500401C00002000C2C3C4C8C7C6C535
:1007D000C2C2C20007070401FFFF00002110010090
:1007E000001200400011004000100040D200002024
:1007F00010000020BC0000200A4A92781202114327
:10080000084A52781143084603F053FE012003F0D2
:10081000A8FE054803F0AEFE012003F0BBFE03F086
:100820008BFD10BD1C000020BE0A000070B500202A
:1008300009E002210522120707231B02D2188300B8
:10084000D150411CC8B21F28F3DB062100229300BF
:100850000524240707252D0264198D00635100BF6C
:10086000072102231C0495002C4305252D070E02A9
:10087000AD198E00AC5100BFC907544A516070BD1C
:1008800000205349886153494860012081078860EE
:1008900000BF504840680028FBD000204D49486008
:1008A00070474D4800780E2804DD4B480078401E04
:1008B00049490870012049494860886048484949C9
:1008C000886045480078C0004649403108600120F2
:1008D00000044549086048604349403948600120A8
:1008E0003E490860704770B504460D46002C02D0A2
:1008F000012C3BD11EE001203C4948603C49086086
:1009000000203C49486002208860062008610120E0
:10091000000439494860192068433649403108606D
:10092000012032490860082000F047F800203349D0
:1009300088711CE00120324948603249086000207B
:100940003149486088600420086180032F4948606D
:1009500005202D49403108600120294908600920FF
:1009600000F02BF800202549C87100BF00BF00BF70
:1009700070BD01202649C860264848600120886073
:1009800070470120244908607047244824490860C2
:10099000704710B500200F490860012081070860EA
:1009A00000BF0C4800680028FBD0FFF73FFFFFF7AF
:1009B00008FD00F085F962B610BD002805DBC2060F
:1009C000D20E01219140174A116070470063004028
:1009D0000005004000010040C600002000B00040BB
:1009E000FF0F000000B5004040B300400080004011
:1009F000008200400085004000830040BC000020D1
:100A0000009000400092004000950040009300409C
:100A100000050140FFFF3F00000001403546526ED7
:100A20000006014000E100E00848008D0006000FCC
:100A3000012805D1064807494860C813064988615E
:100A4000704706480649086070470000C00F00F074
:100A5000DFFF07C000050040006C00400024F400E8
:100A60000000002007E0002101E04A1CD1B2022969
:100A7000FBDB421ED0B20028F5D1704770B50446AA
:100A80000120FFF7EFFF00251DE0082000F057FBD5
:100A90000120FFF7E7FF80202040002803D0052039
:100AA00000F048FB02E0052000F049FB6006040E60
:100AB0000120FFF7D7FF082000F03CFB0120FFF7E3
:100AC000D1FF681CC5B2082DDFDB70BD10B5044630
:100AD0000120FFF7C7FF092000F031FB0A2000F0DA
:100AE0002EFB2046FFF7CAFF092000F023FB10BDB4
:100AF00010B504460120FFF7B5FF092000F01FFBE9
:100B00000A2000F017FB2046FFF7B8FF092000F08D
:100B100011FB10BD10B5052000F00CFB082000F003
:100B200009FB092000F006FB0A2000F003FB0D2062
:100B300000F000FB0B2000F0FDFA10BD70B50025A1
:100B40000024092000F0FBFA0A2000F0F3FA052047
:100B500000218A000307072636029B1986009A5156
:100B600000BF0220FFF77EFF00BF1FE0082000F05B
:100B7000E6FA0220FFF776FF6006040E0520F8492A
:100B80000969C140C907C90F002902D001200443E7
:100B900001E0FE2004400420FFF764FF082000F07D
:100BA000C9FA0220FFF75EFF681CC5B2082DDDDB25
:100BB000052000F0B6FA092000F0BCFA204670BD0E
:100BC00070B5002500BF7120FFF780FFFFF7B6FF6B
:100BD0000446E007C00F0121484004462846691C2E
:100BE0008DB27D210901884203DA3220FFF7A8FB8C
:100BF00000E001E0002CE6D100BF6420FFF7A0FB7D
:100C000070BD10B50D2000F09AFA0B2000F097FA95
:100C10003220FFF795FB0B2000F08CFA3220FFF713
:100C20008FFB0B2000F08BFA3220FFF789FB0B20A3
:100C300000F080FA3220FFF783FB0B2000F07FFAF0
:100C40003220FFF77DFB0B2000F074FA3220FFF713
:100C500077FB0620FFF73AFF1720FFF749FF172021
:100C6000FFF746FF1720FFF743FF7D20C000FFF787
:100C700067FB0420FFF72AFFFFF7A2FFC820FFF75A
:100C80005FFB0020FFF722FF1F20FFF731FF0D2041
:100C9000FFF72EFF6120FFF719FF0120FFF728FF64
:100CA0009020FFF725FF0120FFF722FF2C20FFF700
:100CB0001FFF5020FFF70AFF9720FFF719FF10BD15
:100CC00010B5052000F02DFA082000F02AFA0920BE
:100CD00000F027FA0A2000F024FA0D2000F021FA93
:100CE0000B2000F01EFA0C200021002908D1002260
:100CF00005231B07072424021B1984001A5103E053
:100D000001228240964B9A6100BFFFF77AFF642070
:100D1000FFF716FB0220FFF7D9FEFFF751FF072070
:100D2000FFF7D4FEA520FFF7E3FEFFF7F3FE10BDAB
:100D3000F3B583B00498012811D18A48018C684624
:100D400081808848418C6846C1808648818C68468D
:100D500001818448C18C68464181834F21E08348EA
:100D60008078012814D17F48018D684681807D48B4
:100D7000418D6846C1807B48818D684601817948F4
:100D8000C18D684641817A4F00207849887008E01B
:100D9000322168468180FF212D31C18000210181EF
:100DA00041810398002806D0012807D0022808D0E6
:100DB0000F280CD108E01524E4020BE03924A4022A
:100DC00008E05724A40205E00924640302E0572444
:100DD000A40200BF00BF00260BE0002505E020783C
:100DE000641CFFF785FE681C85B2322DF7DB701C92
:100DF00086B26846C088B042EFDC002628E00025B5
:100E000005E02078641CFFF773FE681C85B2684615
:100E10008088A842F5DC002506E038787F1CFFF7C3
:100E200067FE641C681C85B268460089A842F4DC31
:100E3000684681880089081885B205E02078641C1E
:100E4000FFF756FE681C85B2322DF7DB701C86B2A8
:100E500068464089B042D2DC00260BE0002505E060
:100E60002078641CFFF744FE681C85B2322DF7DB46
:100E7000701C86B26846C18840890818FF212D3150
:100E8000081AB042EADC05B0F0BDF1B584B0FF202D
:100E900003900027FFF7B5FE1020FFF717FE002490
:100EA00004E0FF20FFF724FE601C84B23148384183
:100EB000A042F6DC1320FFF709FE0498102806D0A4
:100EC000302816D0402826D060285DD135E025484E
:100ED000018868468180234841886846C18021484E
:100EE0008188684601811F48C18868464181224E39
:100EF0004BE01C480189684681801A484189684650
:100F0000C18018488189684601811648C1896846B0
:100F100041811A4E39E01348018A684681801148A0
:100F2000418A6846C1800F48818A684601810D4820
:100F3000C18A68464181124E27E00A48018B684603
:100F400081800848418B6846C1800648818B68468D
:100F500001810448C18B684641810A4E15E00000BA
:100F60000005005072720000AA730000BC0000204F
:100F7000DA730000983A0000A2720000EA730000E1
:100F8000527500000276000000BF00BF00250CE093
:100F9000002404E00398FFF7ABFD601C84B232200C
:100FA0003841A042F6DC681C85B26846C088A84279
:100FB000EEDC002527E0002404E00398FFF798FD0D
:100FC000601C84B268468088A042F6DC002405E0FC
:100FD0003078761CFFF78CFD601C84B2684600896F
:100FE000A042F5DC684681880089081884B204E0D4
:100FF0000398FFF77DFD601C84B232203841A04287
:10100000F6DC681C85B268464089A842D3DC00251E
:101010000CE0002404E00398FFF76AFD601C84B232
:1010200032203841A042F6DC681C85B26846C1888F
:1010300040890818FF212D31081AA842E9DC122046
:10104000FFF744FD6420FFF77BF9FFF7B9FD64204B
:10105000FFF776F95020FFF739FDF720FFF748FD3D
:101060006420FFF76DF90220FFF730FDFFF7A8FDC0
:10107000C820FFF765F90720FFF728FDA520FFF737
:1010800037FD7D200001FFF75BF900202E494881E4
:10109000FFF740FD05B0F0BD70B505460E46FFF701
:1010A000B0FD1020FFF712FD002404E0FF20FFF741
:1010B0001FFD601C84B225488442F7DB1320FFF734
:1010C00005FD31462846FFF733FE1220FFF7FEFCF0
:1010D0006420FFF735F9FFF773FD6420FFF730F95F
:1010E0005020FFF7F3FCF720FFF702FD6420FFF725
:1010F00027F90220FFF7EAFCFFF762FDC820FFF79F
:101100001FF90720FFF7E2FCA520FFF7F1FC7D2087
:101110000001FFF715F900200B494881FFF7FAFCA1
:1011200070BD01210522120707231B02D21883007C
:10113000D150704701218140054A916070470121DB
:101140008140034AD1607047C6000020983A0000F1
:101150000005005001460846704730B505460A466E
:10116000022A01D2002030BD2846FFF7F3FF0346D4
:10117000501E1040002801D00020F4E71446181932
:10118000401E611E8843C41A2046ECE7FE487047A3
:10119000FE487047FE487047FE487047FC4870475D
:1011A000FC487047F7B50D46009884B20098060CCD
:1011B000002D01D10120FEBD55E0F749029888427B
:1011C00001D2029800E0F44807460298C01B029042
:1011D000102F34D300BF2878041936196878041901
:1011E0003619A87804193619E878041936192879B7
:1011F00004193619687904193619A87904193619A9
:10120000E87904193619287A04193619687A041904
:101210003619A87A04193619E87A04193619287B80
:1012200004193619687B04193619A87B0419361974
:10123000E87B041936191035103F102FCBD2002F40
:1012400007D000BF29786D1C0C193619781E071EAF
:10125000F8D1D249204605F0E8FD0C46CF4930468A
:1012600005F0E3FD0E4602980028A6D13004204385
:10127000A1E770B504460D4616463246294620467B
:1012800005F042FD70BD70B504460D461646324667
:101290002946204605F065FD70BD70B504460D4633
:1012A000164632462946204605F061FD70BD70B5F0
:1012B00004460D46164632462946204605F09EFD58
:1012C00070BD0246501870477FB501240020019080
:1012D000009000216846FFF7F4FF054628780028B3
:1012E00001D1012000E000200440012C02D10020A7
:1012F00004B070BD0020C043FAE7FFB581B00C46D2
:1013000015461E460198002802D1401E05B0F0BDCA
:10131000601C002801D0022C35D1681C002801D0A7
:10132000042D30D1701C002801D0042E2BD10A9836
:10133000401C002802D00A98042824D10B98401C95
:10134000002802D00B9804281DD10C98401C0028BE
:1013500002D00C98042816D10D98401C002802D009
:101360000D9804280FD10E98401C002802D00E982A
:10137000042808D10F98401C002802D00F98182884
:1013800001D1012000E000200746002F01D1401EBE
:10139000BCE7FFF799FF0746002F01D03846B5E7B5
:1013A0003846B3E7FFB586B0079C0698001905904C
:1013B000079C069800191438049010980390089917
:1013C000069B1A460F98042803D204240F98201A6B
:1013D00000E000201818034600BF00BF9C1A6411EB
:1013E000641C1B1900BF049CA34200D3C2E11C680B
:1013F00001946B4E019C7443A40C0094009C660005
:10140000039CA65B069C34190294069C1C1BA6B286
:10141000009C6700039CE653029C2668019CA64240
:1014200000D0DBE70F9C121B00240F949C1A002CA9
:1014300019D0032C18D80E46203EB67F26430F46FF
:10144000203FBE7700BF0E460192019A1778377091
:10145000019A57787770019A9778B770019AD77880
:10146000F77000BF0919F2E0102C5ED8E61E0E706E
:10147000491C00BF00BF0E460192019A17783770D1
:10148000019A57787770019A9778B770019AD77850
:10149000F77000BF00BF0E1D0196161D0096009E3E
:1014A0003778019E3770009E7778019E7770009E96
:1014B000B778019EB770009EF778019EF77000BF65
:1014C00000BF00BF00BF0E4608360196164608361C
:1014D0000096009E3778019E3770009E7778019EB7
:1014E0007770009EB778019EB770009EF778019ED6
:1014F000F77000BF00BF0E460C36019616460C363C
:101500000096009E3778019E3770009E7778019E86
:101510007770009EB778019EB770009EF778019EA5
:10152000F77000BF00BF091991E0122C03D8E61E26
:101530000E70491C12E02646123E00270F70491C0F
:1015400007E0FF3E00BF0191002701990F7000BF27
:10155000491CFF2EF5D80E70491C00BF00BF00BF0C
:1015600000BF0E460192019A17783770019A57789A
:101570007770019A9778B770019AD778F77000BFA3
:1015800000BF0E1D01960DE05C720000902000006F
:101590006172000066720000B0150000F1FF0000EB
:1015A0009D422418161D0096009E3778019E3770C4
:1015B000009E7778019E7770009EB778019EB77085
:1015C000009EF778019EF77000BF00BF00BF00BF0C
:1015D0000E4608360196164608360096009E377865
:1015E000019E3770009E7778019E7770009EB778D5
:1015F000019EB770009EF778019EF77000BF00BF94
:101600000E460C36019616460C360096009E37782C
:10161000019E3770009E7778019E7770009EB778A4
:10162000019EB770009EF778019EF77000BF00BF63
:1016300010311032103C102C91D2002C07D000BF7A
:1016400016780E70521C491C661E341EF8D10420F8
:101650001E58029F3F587E403446002C17D100BFD1
:10166000001D1E58029F3F587E403446002C00D07B
:101670000CE0001D1E58029F3F587E4034461F1844
:10168000049EB74200D30CE0002CE9D000BFE6B2C4
:10169000002E05D100BF240A401CE6B2002EFAD06D
:1016A00000BF029C1D1B1B181A46082810D80124D5
:1016B000E402A5420CD86D1E441E64016E07F60EAE
:1016C00034430C70491C6C05240E0C70491C50E00E
:1016D0000124A403A54221D86D1E212805D8841E0B
:1016E000202634430C70491C0FE0213820240C7054
:1016F000491C06E0FF3800BF0C460026267000BFDC
:10170000491CFF28F6D80870491CAC06240E0C7042
:10171000491CAC04240E0C70491C2AE00124A403CB
:101720002D1B092809D8EC0A08263440102634431A
:10173000861E34430C70491C13E00938EC0A082655
:101740003440102634430C70491C06E0FF3800BFBB
:101750000C460026267000BF491CFF28F6D80870EA
:10176000491CAC06240E0C70491CAC04240E0C70F1
:10177000491C38E600BF08980C1A099804600F98B5
:10178000141A0598001B0AB0F0BDFFB585B0059886
:101790000490079C069E002533E037460320800313
:1017A000874201D8384601E00320800307460498A9
:1017B000C0190390E819410903980918814207D913
:1017C000E8194109039809180498C019814200D802
:1017D00019E00122D20300210E98FFF768FD0E9850
:1017E0000095019022463946089B0498FFF7DAFDE0
:1017F00005460498C0190490089800682418F61B40
:1018000000BF142EC9D800BFAD19002D7ED0069997
:1018100005984018401B03900798844206D1EE2D8E
:1018200004D8284611302070641C22E0032D08D80B
:1018300020462038807F2843C1B220462038817757
:1018400017E0122D03D8E81E2070641C11E0284612
:10185000123800212170641C06E0FF3800BF2146C9
:1018600000220A7000BF641CFF28F6D82070641C98
:1018700000BF00BF204603992A4625E000BF00BFF5
:101880000346029102990F781F7002994F785F709A
:1018900002998F789F700299CF78DF7000BF00BFE8
:1018A000031D0F1D0297029F3F781F70029F7F78D4
:1018B0005F70029FBF789F70029FFF78DF7000BF4C
:1018C00000BF08300831083A082A01D3012300E09C
:1018D0000023002BD2D1042A01D3012300E00023EE
:1018E000002B12D000BF0346029102990F781F709F
:1018F00002994F785F7002998F789F700299CF7824
:10190000DF7000BF001D091D121F00E011E0002A5A
:1019100001D0012300E00023002B07D000BF0B788B
:101920000370491C401C531E1A1EF8D100BF6419D5
:1019300000BF11202070641C00202070641C2070E7
:10194000641C0798211A08980160002009B0F0BDB6
:10195000FFB5FFB084B000200290002684998398E0
:101960004018009000218698016085980190839C22
:101970002078112811DD2078641C0546113D042DC6
:1019800000D296E100BF22783046761C03A90A54A3
:10199000641C681E051EF6D179E000BFFF200130EF
:1019A00086420FD9024603A90198FEF7A6FCFF3E26
:1019B000013E0198FF3001300190324643A903A84F
:1019C000FEF706FC2578641C102D00D38DE0002D59
:1019D0000AD102E0FF35641C00BF20780028F9D04E
:1019E0002078641C0F30451900BF03AA90192146C6
:1019F0000A7802704A7842708A788270CA78C27017
:101A000000BF361D241D681E051E3FD0042D33D394
:101A100000BFFF20013086420FD9024603A901987A
:101A2000FEF76BFCFF3E013E0198FF300130019054
:101A3000324643A903A8FEF7CBFB00BF03AA9019C7
:101A400021460A7802704A7842708A788270CA7891
:101A5000C27000BF361D241D2D1F042DD9D2002DAC
:101A600014D000BF22783046761C03A90A54641CA7
:101A7000681E051EF6D109E000BF22783046761CAC
:101A800003A90A54641C681E051EF6D100BF257800
:101A9000641C102D00D328E001988019F749471ADB
:101AA000A8083F1A2178641C88003F1A0020029081
:101AB00015E00198874208D30198381A03A90A5CF7
:101AC0003046761C0A547F1C05E03A783046761C76
:101AD00003A90A547F1C0298401CC0B202900298CD
:101AE0000328E6DB7F1EDBE000BF402D0CD301980E
:101AF0008019471EE806400F3F1A2178641CC80071
:101B00003F1A6809451E9FE0202D1AD3ED06ED0E01
:101B1000002D0BD102E0FF35641C00BF20780028A7
:101B2000F9D02078641C1F30451900BF0198801936
:101B3000471E207880106178890140183F1AA41C44
:101B40004EE0102D25D30198871908202840C002A7
:101B50003F1A6D076D0F002D0BD102E0FF35641C9D
:101B600000BF20780028F9D02078641CC01D4519DA
:101B700000BF207880106178890140183F1AA41CAA
:101B800001988019B84200D1ABE0012080033F1AD0
:101B900026E001988019471EA8083F1A2178641C86
:101BA00088003F1A0020029015E00198874208D370
:101BB0000198381A03A90A5C3046761C0A547F1C27
:101BC00005E03A783046761C03A90A547F1C029837
:101BD000401CC0B2029002980228E6DB7F1E5FE044
:101BE000062D30D301988019C01B04282BDBAD1CB7
:101BF00000BFFF20013086420FD9024603A9019899
:101C0000FEF77BFBFF3E013E0198FF300130019063
:101C1000324643A903A8FEF7DBFA0198874208D3AE
:101C20000198381A03A90A5C3046761C0A547F1CB6
:101C300005E03A783046761C03A90A547F1C681EDA
:101C4000051ED6D12BE000BFAD1C00BFFF20013028
:101C500086420FD9024603A90198FEF74EFBFF3ECC
:101C6000013E0198FF3001300190324643A903A89C
:101C7000FEF7AEFA0198874208D30198381A03A9F3
:101C80000A5C3046761C0A547F1C05E03A783046E0
:101C9000761C03A90A547F1C681E051ED6D100BFFE
:101CA00020462038807F8507AD0F002D00D117E03A
:101CB00000BF22783046761C03A90A54641C012D0B
:101CC0000BD922783046761C0A54641C022D04D9A4
:101CD00022783046761C0A54641C2578641C03E77D
:101CE0005CE6B2B203A90198FEF707FB01988019E0
:101CF000019085990198411A869801600098844264
:101D000003D100207FB008B0F0BD0098844202D219
:101D10000720C043F6E70320C043F3E7FFB582B0D6
:101D20001546039F0298C61905980068401901904E
:101D30000027059807602946029AB01A00D1BEE133
:101D40001078112819DD1078521C0346113B042B22
:101D500000D286E10198401A984200D2B5E1B01A4B
:101D6000DF1CB84200D2AAE100BF10780870521CF4
:101D7000491C581E031EF8D168E000BFB01A0328A2
:101D800000D29CE11378521C102B00D387E0002B6B
:101D900010D108E0FF33521C3948834200D98EE14C
:101DA000B01A00D18BE110780028F3D01078521CC3
:101DB0000F30C3180198401ADF1CB84200D284E1EA
:101DC000B01A9F1DB84200D279E100BF08460092C8
:101DD000009A17780770009A57784770009A97789A
:101DE0008770009AD778C77000BF091D121D581E52
:101DF000031E2AD0042B20D300BF00BF0846009248
:101E0000009A17780770009A57784770009A977869
:101E10008770009AD778C77000BF091D121D1B1F5D
:101E2000042BEAD2002B10D000BF10780870521C8F
:101E3000491C581E031EF8D107E000BF1078087037
:101E4000521C491C581E031EF8D100BF1378521CA7
:101E5000102B00D323E009480C1A9808241A107894
:101E6000521C8000241AAC4201D38C4200D332E1D0
:101E70000198401A032805D227E10000010800005C
:101E800001FEFFFF20780870641C491C2078087050
:101E9000641C491C20780870491CD9E000BF402B05
:101EA00015D34C1ED806400F241A1078521CC000BF
:101EB000241A5809431EAC4201D38C4200D30AE1D4
:101EC0000198471A981C874200D2FEE0AFE0202B11
:101ED00021D3DB06DB0E002B14D108E0FF33521CAC
:101EE0008048834200D9F0E0B01A00D1E7E01078D2
:101EF0000028F3D01078521C1F30C318B01A0228E3
:101F000000D2DCE04C1E107880105778BF01C01959
:101F1000241A921C46E0102B2BD30C4608201840A4
:101F2000C002241A5B075B0F002B14D108E0FF33BB
:101F3000521C6C48834200D9C7E0B01A00D1BEE001
:101F400010780028F3D01078521CC01DC318B01AA6
:101F5000022800D2B3E0107880105778BF01C01972
:101F6000241A921C8C4200D199E001208003241A8B
:101F700018E04C1E9808241A1078521C8000241A6D
:101F8000AC4201D38C4200D3A5E00198401A02284C
:101F900000D29AE020780870641C491C20780870F0
:101FA000491C55E0AC4201D38C4200D393E0019828
:101FB000471A981C874200D287E0062B36D3081BAD
:101FC000042833DB00BF08460094009C2778077084
:101FD000009C67784770009CA7788770009CE77822
:101FE000C77000BF091D241D9B1E00BF00BF08460F
:101FF0000094009C27780770009C67784770009CCD
:10200000A7788770009CE778C77000BF091D241D62
:102010001B1F042BEAD2002B19D000BF20780870B8
:10202000641C491C581E031EF8D110E000BF207824
:102030000870641C491C20780870641C491C00BF8F
:1020400020780870641C491C581E031EF8D100BF7C
:1020500010462038807F83079B0F002B00D11DE0A6
:1020600000BF0198401A984200D22EE0B01ADF1C3F
:10207000B84200D223E010780870521C491C012B92
:1020800009D910780870521C491C022B03D910780A
:102090000870521C491C1378521CFFE66EE64F1B59
:1020A00005980760B24202D1002006B0F0BDB242EE
:1020B00002D20720C043F8E70320C043F5E74F1BD7
:1020C000059807600320C043EFE74F1B05980760A2
:1020D0000420C043E9E74F1B059807600520C04373
:1020E000E3E7000001FEFFFF002815DBC206D20E69
:1020F00001219140FE4A116000BF00BF00BFBFF345
:102100004F8F00BF00BF00BF00BF00BF00BFBFF3C5
:102110006F8F00BF00BF00BF704710B50B2001F0EC
:102120000AFF062001F007FF012081074860FEF743
:10213000A7FBFEF7B6FB00BF00BF00BF30BF00BF6C
:1021400000BF00BF0620FFF7CFFF0B20FFF7CCFF3B
:102150000020E849086001208107086000BFE548C9
:1021600000680028FBD010BD10B502460B460020C9
:10217000002104E0545C2418E0B24C1CE1B2994206
:10218000F8DB10BDF8B50021DB4801700020DB4909
:10219000C8600120DA49886032210020FEF7A3FBE5
:1021A00004E0D8488079012800D103E0D348C06812
:1021B0000028F6D000BFD0480078072851D1D14878
:1021C000807901284DD01F21CB48FFF7CDFFCA49A8
:1021D000C97F884245D1C84840780402C6498978F9
:1021E0000C43E217520F1219D210C74B9A5C2146CA
:1021F000E3175B0F5B18DB10DB00E31A0727FF1AFE
:102200000123BB409A43E3175B0F1B19DB10BE4F42
:10221000FA54E000001B800057218902461800256F
:102220001DE000200090A800801DB349085C000656
:10223000A900491DB04A515C09040843A900091DC1
:10224000515C09020843A900C91C515C0843009075
:1022500030460099FDF7F0FF361D681CC5B2072D0A
:10226000DFDB00BFA74880790028FBD0F8BD10B5A0
:1022700000222821A54801F089FE10BD10B5FFF706
:10228000F6FFA249091F0860012127208002FEF7FE
:1022900015F80B229D49091F27208002FEF71CF824
:1022A00010BDF0B500220023994C2370994C238077
:1022B00000212DE00022002018E0C5176D0F2D1819
:1022C000EE101E254D4375198F4E755D0346C617DA
:1022D000760FF618F610F600861B0727BE1B354151
:1022E000ED07ED0FAD18EAB2431CD8B2F028E4DBDD
:1022F000002A06D101238B40874C24789C43864BCF
:102300001C70844B1B889B18824C23804B1C99B2F9
:10231000824B1B785B1E8B42CCDC002200201BE032
:10232000C5176D0F2D18EE107C4D2D786D1E1E27D4
:102330007D437519744E755D0346C617760FF61802
:10234000F610F600861B0727BE1B3541ED07ED0F83
:10235000AD18EAB2431CD8B2714B1B789842DFDB50
:10236000002A09D16D4B1C78641E0123A3406A4CDE
:1023700024789C43684B1C70664B1B889B18654CEB
:10238000238000210BE0644B1B780B41DB07DB0F44
:102390005F4C24781B195E4C23704B1C99B25F4B29
:1023A0001B789942EFDBF0BDF8B50021524801706F
:1023B00000205249C8600120514988603221002024
:1023C000FEF791FA04E04F488079012800D103E03C
:1023D0004A48C0680028F6D000BF474800780D285A
:1023E0005ED14848807901285AD01F214248FFF722
:1023F000BBFE4149C97F884252D13F484078010223
:102400003D488078081884B22046E217520F12180F
:10241000D210444B9A5C2146E3175B0F5B18DB102C
:10242000DB00E31A0727FF1A0123BB409A43E31797
:102430005B0F1B18DB103B4FFA543B480078002819
:1024400006D0E000001B800075218902461805E0D7
:10245000E000001B80003321C902461800251DE062
:1024600000200090A800801D2349085C0006A900F8
:10247000491D214A515C09040843A900091D515C0A
:1024800009020843A900C91C515C0843009030466A
:102490000099FDF7D1FE361D681CC5B2072DDFDBA4
:1024A00000BF184880790028FBD0F8BDF8B5054674
:1024B0000C4600272926B6023046FDF7A5FE294620
:1024C0003046FDF7B9FE361D207800066178090414
:1024D0000843A17809020843E178084307463946D2
:1024E0003046FDF7A9FE0F20FDF72AFFF8BD0000DA
:1024F00080E100E000010040F200002000110040F7
:1025000000100040BC00002055010020FC0100200C
:102510006C0000206A0000206F000020680000208E
:102520006D000020120100203200002070B504462A
:10253000002605256D032846FDF766FE2078000677
:10254000617809040843A17809020843E178084347
:10255000064631462846FDF76FFE1E20FDF7F0FEC9
:1025600070BDFFB599B00F46249E229D0024002027
:1025700015901490139010900F902846E917490F6A
:102580000918C910C900691AC9B212913046F11769
:10259000490F0918C910C900711AC9B2119100BFB9
:1025A00007E00120A04014990843C0B21490601CB9
:1025B000C4B208211298081AA042F2DC002407E0F5
:1025C0000120A04013990843C0B21390601CC4B20C
:1025D00008211198081AA042F2DC002017902FE081
:1025E000002427E0387802A908557F1C02A8025D64
:1025F0001598411CC9B2159101A90A5415980328D0
:1026000016DD002015906946C8790006897909040D
:10261000084369464979090208436946097908432C
:10262000169016991998FDF707FE1998001D199034
:10263000601CC4B2322CD5DB1798401C80B21790B6
:102640001C9917988842CBDB1C981790E2E0002079
:10265000189008E0397802AA189811547F1C18982D
:10266000401C80B21890E917490F4919CA101899EF
:102670008A42EFDC2846E917490F0918C910C9003A
:10268000691A17D0387810901B9800780F90149919
:1026900010988843129A0F991141149A11400143DE
:1026A0001898421C92B2189202AA11541B98401C0E
:1026B0001B907F1C1FE01B982038C07F10901B9838
:1026C00000780F9008211298091A109888401499E0
:1026D0008843129A0F991141149A11400843C1B2CC
:1026E00002AA189811541B98401C1B907F1C189824
:1026F000401C80B21890F117490F8919CA10189917
:102700008A42D8DC3046F117490F0918C910C900B0
:10271000711A46D028463146F217520F5218D2107D
:10272000D200B21AEB175B0F1B18DB10DB00EB1AA1
:102730009A4219DD1B982038C07F10901B980078B2
:102740000F9008211298091A10988840149988430C
:10275000129A0F991141149A11400843C0B2109077
:102760001B98401C1B900CE01B982038C07F1090D9
:1027700008211298091A1098884014998843C0B209
:10278000109038780F90139910988843139A0F99E6
:10279000114001431898421C92B2189202AA115497
:1027A0007F1C08E0397802AA189811547F1C1898E9
:1027B000401C80B2189018983228F3DB002423E0E4
:1027C00002A8025D1598411CC9B2159101A90A54CD
:1027D0001598032816DD002015906946C879000673
:1027E0008979090408436946497909020843694619
:1027F00009790843169016991998FDF71DFD199847
:10280000001D1990601CC4B2322CD9DB1798401CF3
:1028100080B2179023991798884200DA17E7239817
:1028200017902FE0002427E0387802A908557F1C74
:1028300002A8025D1598411CC9B2159101A90A545C
:102840001598032816DD002015906946C879000602
:1028500089790904084369464979090208436946A8
:1028600009790843169016991998FDF7E5FC19980F
:10287000001D1990601CC4B2322CD5DB1798401C87
:1028800080B21790FF212D3117988842CADB1DB006
:10289000F0BD7FB500260022F74801887520800230
:1028A00001F074FB0646F5480068B04202D00120F2
:1028B00004B070BDF2480078002824D0002003AB9B
:1028C0003322D2020090EC48018875208002FFF785
:1028D0003FF80546002D0AD1EA4909880398884245
:1028E00005D10F2175208002FDF7E8FC0BE00F21D8
:1028F00075208002FDF7E2FC0F213320C002FDF7B6
:10290000DDFC0120D4E7E0480078002806D001284B
:1029100007D0022808D00F280CD108E01524E402C3
:102920000BE03924A40208E05724A40205E009249E
:10293000640302E05724A40200BF00BFD34800880C
:102940004321C900884208DACD480078002814D015
:10295000CC480088CE4988420FDB0F212046FDF786
:10296000ADFCCC4A3321C9022046FDF7B5FC0F214E
:102970003320C002FDF7A2FC25E0C64A214675209F
:102980008002FDF7A9FC0F212046FDF797FCC24805
:102990000088C2490988C24A1288009201910290B7
:1029A000C04803883322D202752189022046FFF7EE
:1029B000D8FD0F213320C002FDF780FC0F217520C8
:1029C0008002FDF77BFCB848C078012802D10220C4
:1029D000B549C8700120B449487008464078B349E9
:1029E00008700846FFF7A2FDB148007800280AD118
:1029F000B049A5480078FFF759FDAF480178A248D3
:102A00000078FEF749FB002052E7F0B500220023D2
:102A1000AA4C2370AA4C238000212DE00022002024
:102A200018E0C5176D0F2D18EE101E254D437519B2
:102A3000A44E755D0346C617760FF618F610F6001D
:102A4000861B0727BE1B3541ED07ED0FAD18EAB217
:102A5000431CD8B2F028E4DB002A06D101238B40C6
:102A6000994C24889C43984B1C80954B1B889B1841
:102A7000934C23804B1C99B2944B1B785B1E8B426A
:102A8000CCDC002200201BE0C5176D0F2D18EE10C6
:102A90008E4D2D786D1E1E277D437519894E755DEF
:102AA0000346C617760FF618F610F600861B0727A2
:102AB000BE1B3541ED07ED0FAD18EAB2431CD8B28D
:102AC000834B1B789842DFDB002A09D17F4B1C78AF
:102AD000641E0123A3407C4C24889C437A4B1C80B9
:102AE000774B1B889B18764C238000210BE0764B9C
:102AF0001B880B41DB07DB0F704C24781B196F4CD4
:102B000023704B1C99B2714B1B789942EFDBF0BDDF
:102B100010B5044667492046FFF7C8FC66480178AF
:102B20002046FEF7B9FA10BDFEB5002002900190D4
:102B30006848807F0290029801026648C07F0818AA
:102B400080B2029000221E21624801F044FA0299EC
:102B5000884200D0FEBD5F480078032875D10D2162
:102B60005C48FFF701FB5B49497B884200D0F1E7F5
:102B700058484078012869D156488078B928FAD158
:102B80005448C078B928F6D1C2205249203908707B
:102B9000002406E04748015D601C4E4A203A11546B
:102BA00084B2042CF6DB4B4800794A49203948713D
:102BB000002406E00021A01D464A203A1154601C62
:102BC00084B2072CF6DB4348007907282DD004DCBB
:102BD000012807D0042840D121E009282ED00A2856
:102BE0003BD134E03C4880783A49203988713A49F1
:102BF0000888C117090E09180904090E354A203A38
:102C0000D17135490888C117090E0918091209023E
:102C1000411A117224480078114648721EE02F486C
:102C200000782C492039887118E029208002009012
:102C3000009800782749203988710FE04220254903
:102C400020398871A120C87108E0FAE050E01948E5
:102C5000807920492039887100BF00BF00BF0C2156
:102C60001C482038FFF780FA1A4920390873C82019
:102C7000FDF788FA002438E0480000202C000020EE
:102C8000320000204A0000203D00002034000020D7
:102C9000983A0000A60E00004600002044000020E4
:102CA0004200002040000020BC0000202600002040
:102CB0003E000020100000203100002038000020DD
:102CC00036000020120100203A00002039000020C8
:102CD0003C000020F20000200C000020C600002074
:102CE0000D20FDF7D4FC601C84B2032CF8DB06E356
:102CF000C220FC490870002405E0FB48015D601C0F
:102D0000F84A115484B2042CF7DB0020F5494871CD
:102D10000621F448FFF728FAF2498871C820FDF728
:102D200031FA002404E00720FDF7B1FC601C84B2F6
:102D3000052CF8DBEB4820304078B22822D1E94856
:102D400020308078B2281DD1E6482030C078B228E3
:102D500018D10020E5494870E5490860E34840780B
:102D6000E44908700846FFF7E1FB0020DF490870DE
:102D7000DD490F20FFF79AFBDF4801780F20FEF7AF
:102D80008BF9B4E7D74820304078B52818D1D5481A
:102D9000203080781E2803DD1E20D849087004E00A
:102DA000D04820308078D5490870CE482030C0788F
:102DB00000289CDDCB4920318878FDF7C1FA96E7E1
:102DC000C84820304078B62813D1C64820308078D3
:102DD000B6280ED1C3482030C078022803DD602019
:102DE000FEF753F883E7BF492031C878FFF790FE1C
:102DF0007DE7BC4820304078BB28C2D1B94820309C
:102E00008078BB28BDD1B7482030C0780428B8D11D
:102E1000BB4908700020B5494870B5490860B348FF
:102E20004078B44908700846FFF780FB0020AF499E
:102E30000870AD490F20FFF739FB1020FEF725F889
:102E400055E7A848203000780B287AD11221A548F0
:102E50002030FFF789F9A3492031897C884200D0CE
:102E600078E6A0482030407801029E4820308078E3
:102E70000818A44908809B482030C0780011A24956
:102E8000087008460078022807DD084600780F28F9
:102E900003D06020FDF7F9FF5CE692482030C0784F
:102EA0000007000F994908708E4820300079984932
:102EB00008708C482030407C964908708948203042
:102EC000407B000687492031897B090408438549F6
:102ED0002031C97B0902084382492031097C08431B
:102EE0000746884800888C4988422BDA7D48203084
:102EF000407901027B482030807908188749088092
:102F000078482030C079010276482030007A0818CD
:102F10008349088073482030407A0102714820308C
:102F2000807A0818401C7F4908806E482030C07A9B
:102F300001026C482030007B0818401C7A49088048
:102F400011E0DDE14320C0006E4908800020734994
:102F5000088073490880FF20913072490880FF2063
:102F60002D3071490880F0216648008803F06BFF1E
:102F7000C8B26E49087008460078002809D1F020D0
:102F80000870F0215F48008803F05DFF6849087011
:102F900007E0F0215B48008803F055FF401C6449BE
:102FA00008705C480078002837D05948007800281D
:102FB00006D1544800881C2148435E49088009E036
:102FC00050480088401E1C21484351490978401848
:102FD000584908805348008850490988401AC01051
:102FE000514909884E4A1288891A484352498842F1
:102FF00003DB0846514908800FE04A4800884749EA
:103000000988401A401EC010401C47490988444A9C
:103010001288891A484349490880C22031490870FA
:103020003148007848703048407888702E48807861
:10303000C8702D48C07808712D480068874225D196
:103040003F480078012814D1002048710621254806
:10305000FFF78AF8234988710220FDF771F90024EF
:1030600004E00720FDF713FB601C84B2052CF8DB9D
:1030700070E510201B49487106211A48FFF774F8C3
:10308000184988710120FDF75BF95FE01848076077
:103090000020C0432B490880002404E0FF202A4977
:1030A0000855601C84B2432CF8DB254800780128C1
:1030B0000CD110200B49487106210A48FFF754F83B
:1030C0000849887100201E4908703FE00F21332015
:1030D000C002FDF7F3F80F2175208002FDF7EEF82E
:1030E00038E50000D200002010000020BC000020C5
:1030F0002C0000202600002031000020C600002007
:1031000005000020340000203D0000203E0000208B
:10311000330000203200002019020000420000208D
:103120004000002046000020440000203C00002019
:103130003900002048000020983A00004A00002092
:10314000700000203A000020120100200120FDF74D
:10315000F7F8002404E00720FDF799FA601C84B218
:10316000052CF8DB2020FDF7F2F90020FE4908606D
:103170000120FE49486000BFFB4800680028FBD0E2
:10318000002403E0FFF710F9601C84B2F8480088BF
:103190008442F7DB0020F44908610120F34908610B
:1031A00000BFF14800690028FBD00026A4E0FFF72B
:1031B0002CFCF0480088002842D10E20EE4908700F
:1031C00000204870002406E0EC48015DA01CEA4A9B
:1031D0001154601C84B2042CF6DB05E00021A01C15
:1031E000E54A1154601C84B21E2CF7DB0520FDF764
:1031F000A7F8002407E02020FDF749FAC820FCF7D3
:10320000C1FF601C84B2052CF5DBFFF742FB0028F0
:103210000CD00020DA4908700120DA4948710020FA
:10322000D94908600520D949087008E00120D4492F
:1032300008700020D34948710F20D44908705EE01F
:1032400000242DE0D24800882041C007C00F00288C
:1032500024D0D0480078401E00010E30C6490870C6
:103260002001401C4870002513E01E2060434019D7
:10327000432808DA1E2060434019C749095CA81C8E
:10328000BD4A115403E00021A81CBB4A1154681C1C
:10329000C5B21E2DE9DB2020FDF7F9F9601C84B2D0
:1032A000BE4800788442CDDB0520FDF749F8202098
:1032B000FDF74DF90020AC4908600120AB4948609A
:1032C00000BFA94800680028FBD0002403E0FFF7F6
:1032D0006BF8601C84B2A74800888442F7DB0020AA
:1032E000A14908610120A149086100BF9E48006909
:1032F0000028FBD0701CC6B2032E00DA57E7B4E1F9
:103300009D48203000780528F9D19B48203040782E
:1033100000029949203189780843A14908809648DC
:103320002030C0789F49087093482030007900060B
:10333000914920314979090408438F49203189791D
:10334000090208438C492031C9790843964908602D
:1033500089482030007A000487492031497A0902DF
:10336000084385492031897A084390490860084616
:103370000068401E800A401C8D490870F021884872
:10338000008803F060FDC8B28A49087008460078DA
:10339000002809D1F0200870F0218148008803F04E
:1033A00052FD8549087007E0F0217D48008803F050
:1033B0004AFD401C80490870C2206F4908706F4860
:1033C000007848706D48407888706C488078C87084
:1033D0006A48C078087124204871784800697149AA
:1033E000097888420FD00020634988710220FCF7D9
:1033F000A7FF002404E00720FDF749F9601C84B210
:10340000052CF8DB0FE001205B4988710220FCF7F6
:1034100097FF002404E00720FDF739F9601C84B20F
:10342000052CF8DB1CE55F4800786549097888427F
:1034300014D05C48007862490870FF206149087028
:10344000002404E0FF2060490855601C84B2544801
:103450000088401EC010401CA042F3DC2020FDF775
:1034600076F800204049086001204049486000BFCC
:103470003D4800680028FBD0002403E0FEF782FEF0
:10348000601C84B2464800888442F7DB002036493D
:10349000086101203549086100BF334800690028F0
:1034A000FBD0FEF7FEFE4948008800284AD10820DC
:1034B0003149087000204870002405E00021A01C5C
:1034C0002D4A1154601C84B21E2CF7DB0520FCF73A
:1034D00037FF002404E02020FDF7D9F8601C84B2F7
:1034E000052CF8DB0022314801685720800200F0EB
:1034F0004DFD01902C4901980968884218D1A120FE
:103500002E49486000204861572080028861274882
:103510000068C8610198086222480078486200206B
:103520008862FEF7ABFE0920000300F0ACFD9CE0D2
:103530000020234908701E48017857208002FCF7BC
:10354000BDFE92E0002469E01E4800782041C007DB
:10355000C00F002860D01E480078401E00010830CF
:1035600005490870200135E00011004000100040BE
:103570003400002036000020D2000020100000207F
:1035800070000020BC0000202C000020C60000209D
:103590003A000020380000201201002039000020ED
:1035A0006600002064000020600000205C00002015
:1035B0006E0000206D00002068000020F80100204F
:1035C000650000206F000020550100206A000020E7
:1035D0006C000020401C4870002518E01E2060434D
:1035E0004119FA480088401EC010401C814208DA88
:1035F0001E2060434019F649095CA81CF54A115485
:1036000003E00021A81CF34A1154681CC5B21E2D0A
:10361000E4DB2020FDF73BF8601C84B2EE48007824
:10362000844291DB2020FCF792FF0020EB490860E8
:103630000120EB49486000BFE84800680028FBD043
:10364000002403E0FEF79EFD601C84B2E54800887C
:103650008442F7DB0020E14908610120E04908616C
:1036600000BFDE4800690028FBD000BF14E400BFA3
:103670000020DD49486000BF0120DC49086000BF30
:10368000DB4800680028FBD00020D949086000BF53
:10369000D5498968012252021140002904D0D2493B
:1036A0008968D44A114301E0CF4989680846C117A7
:1036B000890F09188910D04A116010460068002847
:1036C00002D18020114608600120C8494860704737
:1036D00010B500240120C949C863C94948601A20AF
:1036E000C8494860012008600020C54948600120A1
:1036F000086000BFC44800680128FBD00520FCF723
:103700001FFEC0488468002C04D13220FCF718FE4C
:10371000BC4884684B21090161434A008818B549B7
:10372000C94303F082FB0446B8490C800020B84925
:103730000870B6480088B749884206DA0120B449C3
:1037400008700020B149488016E0B0480088B249AE
:10375000884203DD6420AD4948800DE0AB4909880B
:10376000AC4A891A642251430846AC4903F06BFB0A
:103770000446E0B2A54948800020A049C86310BDB6
:1037800070B5A7484088401CA54948800846017884
:10379000FF202D3003F057FBA1494988884204DA05
:1037A00000209F494880FFF793FF99480078002840
:1037B0001FD09C480078401C9A49087098480178AE
:1037C0004B20C00003F03FFB9649097888421DDA80
:1037D00000209449087094480078002805D12925D4
:1037E000AD0228780121FDF757FC01208E490870B1
:1037F0000CE08D480078012805D12925AD022878F4
:103800000021FDF749FC00208749087084480089A1
:10381000401C8349088108460178E120800003F0BC
:1038200012FB7F490989884208DA7D484089401C9B
:103830007B49488100200881FFF719FF784880887C
:10384000401C7749888008460178E120800003F019
:10385000FAFA73498988884201DAFCF7B2FD7348A5
:103860000078012850D16A484079002806D02620E7
:103870006F4908716F48007C487129E064480078FE
:10388000002806D014206A4908716A48007C4871F3
:103890001EE05F48C078002805D05A2064490871AE
:1038A000A520487114E05A484078002806D002202C
:1038B0005F4908715F48007C487109E054484078CE
:1038C000002805D10A205A4908715A48007C4871DD
:1038D000002408E000203F49085500213D482030E1
:1038E0000155601CC4B2202CF4DBFCF7D0FD202075
:1038F000FCF72DFE3220FCF788FE36482030007899
:10390000002801D0FFF710F970BDF8B5054629264B
:10391000B6023768002404E0285D45490855601C5C
:10392000C4B2042CF8DB42493846FEF7BFFDF8BDAF
:1039300070B504460E46012C06D0042C11D0052C7F
:103940002AD0062C7CD17CE038480078042807D1A6
:10395000012036490870344801780F20FDF79CFBA0
:103960007CE032480078012815D104202F490870E6
:1039700000202749487030490860254840782F4981
:1039800008700846FEF7D2FD29490F20FEF78EFD8C
:103990001020FDF77AFA61E024480078012814D15C
:1039A00000201B4948702449086019484078234981
:1039B00008700846FEF7BAFD1D490F20FEF776FD98
:1039C000194801780F20FDF767FB47E066000020EB
:1039D00055010020D20000206800002000110040A6
:1039E000001000406A00002000C5004000C00040F8
:1039F00000C1004000FCFFFF08000020C07F004025
:103A00000070004000750040007400400C00002071
:103A1000BC000020C40900001C0C00008A02000049
:103A2000C6000020300000203100002005000020EA
:103A300010000020F80100202C00002026000020AB
:103A40000BE0F8480078012806D12925AD02287836
:103A5000F5490978FDF720FB00E000BF00BF70BD0D
:103A600010B5F2480078012800D010BDFCF788FEA0
:103A7000C020EF490870EF4800784870ED48407862
:103A80008870EC488078C870EA48C07808710521D1
:103A9000E748FEF769FBE64948710023062218460D
:103AA00000F061FC3220FCF74BFC00F049FCE248DE
:103AB000007A00284CD00020DF490872DC48203012
:103AC0000078A32844D1DD480078401EC1B2D84810
:103AD0002030FEF749FBD9490968491ED44A2032F3
:103AE000515C884234D110464078012804D1D17805
:103AF0009078FFF71DFF2BE0CD4820304078072855
:103B00000FD1C8480078012822D1C94820308078D8
:103B1000C849097888421BD1C5482230FFF7F5FE15
:103B200016E0C348203040780B2811D1BD480078FA
:103B300001280DD1BE4820308078022803DD6020A6
:103B4000FDF7A3F904E0BA4920318878FEF7E0FFD9
:103B500000F0F6FBC820FCF7F3FBFCF732FC022078
:103B6000FCF7EEFB0020B64908610120B549086169
:103B700000BFB34800690028FBD000BF75E730B52F
:103B800087B00025FCF7F5FEFFF7A2FDFFF76FFDFC
:103B9000FCF7F7FE0524640325680320FCF7D0FB3F
:103BA000280EA549487008464078002805D00846E8
:103BB0004078012801D0002048701820042102918B
:103BC0000391049100910B460A4601910590022150
:103BD0009D48FDF792FB002801D007B030BD00BF23
:103BE000FBE738B5062000F0AFF9002874D01420A8
:103BF000FCF7A6FB062000F0A7F90028F6D0062067
:103C000000F099F90B20FEF76FFA01208107486058
:103C1000FCF736FE30BF00BF00BF00BF00208B495D
:103C2000086001208107086000BF884800680028FC
:103C3000FBD00620FEF758FA3220FCF781FB002467
:103C400008E07C48005D6946085500207949085520
:103C5000601CC4B2042CF4DB00240CE0FCF717FC5D
:103C60000220FCF76DFB1920FCF771FC3220FCF7F9
:103C7000CCFC601CC4B2962CF0DB002405E0684646
:103C8000005D6C490855601CC4B2042CF7DB664823
:103C900001780220FDF700FA062000F04CF90B2015
:103CA000FEF722FA012081074860FCF7E9FD30BFEA
:103CB00000206649086001208107086000BF634852
:103CC00000680028FBD059480078002816D0012051
:103CD0005949C870002407E021E0FFF751FDC820D2
:103CE000FCF72EFB601CC4B20F2CF6DB5248C078E8
:103CF000022806D03020FDF7C8F802E04020FDF78A
:103D0000C4F80BE00620FEF7EFF90B20FEF7ECF904
:103D1000012081074860FCF7B3FD30BFF2E738BDF2
:103D2000F8B52925AD026868000E2E2818D0484D38
:103D30002E68300E2E2800D0464E002408E00320C6
:103D4000001BC1003046C8403A490855601CC4B247
:103D5000042CF4DB37490F20FEF7A8FB0F2712E0F5
:103D60002F782D1D2E68002408E00320001BC100C1
:103D70003046C8402F490855601CC4B2042CF4DBFF
:103D800001202D498870344800680221084002282B
:103D900003D101203149087002E000202F4908704A
:103DA000FFF71FFF2D480078002804D11E48017836
:103DB0003846FDF771F9F8BD10B500201E490870AE
:103DC00048708870C87008718871C87108720E20B8
:103DD00023490870002048808871088148810220AA
:103DE0001249087001200F4908700F213320C002CA
:103DF000FCF764FA0F2175208002FCF75FFA2C2291
:103E00001849194802F0B9FF10BDFF20F530FCF742
:103E100097FAFCF7BEFDFFF7CFFFFFF781FFFFF733
:103E2000AEFE39E005000020310000200400002033
:103E3000D200002010000020BC000020180000204C
:103E400000110040001000409020000000010040E0
:103E5000801000100100002E000400402A00002005
:103E6000C6000020009C0000F8010020FCF78DFD3A
:103E700039480078012802D0022806D102E0FFF775
:103E8000EFFD03E0FFF77CFC00E000BF00BF002077
:103E900031490870FEF741F9E8E700202F49086032
:103EA00001202F4948602F4988717047704710B52D
:103EB00000202D49C863072000F046F8002802D0F2
:103EC00001202549087010BD0020284908602749B5
:103ED00040310860012026494860264800780428BF
:103EE00002D002201C4908700120214988607047D7
:103EF00070B505460C46002306221F49184600F0FF
:103F000032FA1E498C7170BD10B50446002306229A
:103F10001949184600F027FA10BD70B504460D4641
:103F2000174A15492031002000F066FA01200D499A
:103F3000087270BD7047002805DBC206D20E012151
:103F40009140104A1160704701460F480069C8400F
:103F5000C007C00F704700000400002040810040EF
:103F600000800040BC0000204061004000B10040E3
:103F700000B0004005000020D2000020100000200A
:103F80001800002000E100E000050050F7B50B46E6
:103F9000002A01D1501E01E01068C04301460020F4
:103FA00015E0009C245C614008240DE04D08CE071C
:103FB000F60F002E02D00026F64300E00026194F2F
:103FC0003E4075402946641E002CEFD1401C9842AB
:103FD000E7D3C843FEBDF7B50B46002A01D112480E
:103FE00001E01088C04381B2002016E0009C245CF0
:103FF000614008240DE04D10CE07F60F002E01D0D1
:10400000094E00E00026094F3E4075402946651ED6
:10401000ECB2002CEFDC441CA0B29842E6DBC843B3
:1040200080B2FEBD2083B8EDFFFF0000211000002C
:1040300010B5002018490A6822E001218140114092
:1040400000291BD041B2002916DBCC06E40E012367
:10405000A340114C8034236000BF00BF00BFBFF3FA
:104060004F8F00BF00BF00BF00BF00BF00BFBFF346
:104070006F8F00BF00BF00BF00BF00BF411CC8B2B0
:104080002028DADB10BD10B50446FFF7D1FF20462B
:10409000FCF788F810BD000000E100E00A48026863
:1040A0000F210A4302600948804709480047FEE79C
:1040B000FEE7FEE7FEE7FEE7FEE7000005480649EB
:1040C000064A074B7047000024050040290A0000FB
:1040D000C10000001006002010160020100E002065
:1040E000100E0020014610B50020002903D0012940
:1040F00000D010BD012000F048FD012010BD014698
:1041000010B50220002908D0012908D0022907D0C3
:10411000F84801F0E5FE002010BD002000E001207D
:1041200000F0CDFA012010BD10B5012400280BD0FD
:1041300001280BD0022802D0EF4801F0D1FE204622
:1041400003F030F8012010BD0224F8E70024F6E760
:1041500010B50024072814D20100794409794918C0
:104160008F4403120507090B0D0004240CE0FC2406
:104170000AE0F82408E0F42406E0F02404E0EC244B
:1041800002E0DE4801F0ACFE204603F055F80120C5
:1041900010BD014610B50320002905D0012906D025
:1041A000022903D0002010BD022000E0042000F00E
:1041B00063FB012010BD10B5002803D0012803D0F7
:1041C000002010BD012000E0022000F08CFD012045
:1041D00010BD014610B5CA48C068407E002801D015
:1041E000002010BDC74881700121801C00F03DFFF8
:1041F000012010BDF8B503041C0E93B2C7B2020E25
:1042000000020016BE4E4542062F54D238007844B4
:1042100000790018874402152B4B1448B948002A2E
:104220000380084601D0012100E00021317000F038
:10423000A2FE29462046FFF75BFE307800282ED1EB
:10424000F8BDB04D08462B804978CE07F60F00F038
:1042500092FEE878002801D0002E03D02046FFF718
:1042600053FEF8BD00212046FFF742FEF8BD002AAC
:1042700001D0012000E0002030700E4600280ED052
:10428000002E02D0A048864202D1A04801F028FEAC
:10429000304600F070FE29462046FFF729FE2946E9
:1042A0002046FFF73AFEF8BDFFF744FEF8BD9848F8
:1042B00001F016FEF8BD9748FAE7F8B505469648AE
:1042C00000F026FD8E4901268E4AC860D67000286F
:1042D00030D000241480407E002801D0002706E062
:1042E0000A2090700121901C00F0BFFE0127002DD4
:1042F00002D0012D06D101E0012000E0022000F0F3
:10430000F2FC34463C40042000F0B6FA354600206A
:1043100002F092FF284602F045FF284600F0CFF950
:10432000002000F032FC012000F0CAFE002C01D079
:104330000120F8BD0020F8BD10B500F099FD10BDBA
:1043400010B500F0B8FD00F0C9FD002802D0FFF75D
:10435000F1FD10BD00F0AFFD10BD10B500F0BEFDC9
:104360000121484010BD082801D300207047FFB547
:1043700081B0064602981F461546002828D0202DF9
:1043800028D800F03CFE002822D0304600F02FFE56
:1043900003281FD2304600F02EFE03281AD200F068
:1043A000E0FD040016D02570002F16D0012F18D084
:1043B0005A4801F095FD2A46A01C029902F0DDFC46
:1043C000F0B2214600F0E1FD00280FD000BF01202F
:1043D00005B0F0BD002005B0F0BD607801210843B4
:1043E00002E06078400840006070E4E74C4801F06B
:1043F00077FD002005B0F0BD70B516460D460446A9
:1044000000F0F9FD002812D0002D11D0204600F058
:10441000D6FD04000ED0A01C0CD02278A11C28468A
:10442000326002F0AAFC204600F0A5FD012070BD1C
:10443000002070BD3B4801F053FD002070BD10B559
:1044400000F0D5FD10BD10B500F0D5FD10BD10B5C4
:10445000C0B200F0D8FD10BD10B5C0B200F0E9FD4B
:1044600010BD28480088704710B500F077FD01287E
:1044700007D0022807D000242B4801F031FD204648
:1044800010BD0024FBE70124F9E710B500F003FE9E
:10449000022808D0032808D0042808D0234801F0B7
:1044A0001FFD022010BD002010BD012010BD022004
:1044B00010BD1349C968497E002901D0002070470A
:1044C00010B500F0A8F9012010BD10B500F0BBFD3B
:1044D00010BD0B49C968497E002901D000207047F2
:1044E00010B500F067F9012010BD10B500F0AEFD69
:1044F00010BD00008E0202005B0202001C020200DE
:10450000740000207C000020ADDEADDE2903020037
:104510003303020038030200F5410000B600020038
:10452000BC000200E200020032010200620102004F
:104530005B4AD268527E002A01D1082801D30020AC
:10454000704710B500F0EDF8012010BD082801D328
:104550000020704710B50C4600F07BFD2070012054
:1045600010BD10B500F09AFD012010BD10B500F08F
:1045700098FD10BD4A49C968497E002901D0002034
:10458000704710B500F031FB012010BD10B500F0F0
:104590008BFD10BD4249C968497E002901D0002029
:1045A000704710B500F0FAFA012010BD10B500F008
:1045B00084FD10BD3B488078704710B502F0ECFDDB
:1045C000F0281CD006DC002811D004280DD0EC28DF
:1045D00006D116E0F42810D0F8280CD0FC2808D01A
:1045E000314801F07DFC012010BD002010BD0120EC
:1045F00010BD022010BD032010BD042010BD0520F9
:1046000010BD062010BD10B502F0C0FD00280AD074
:1046100001280AD0022804D0244801F061FC0220BD
:1046200010BD002010BD012010BD022010BD10B52E
:1046300002F0A6FD002807D0012805D0022803D0EB
:104640001B4801F04DFC022010BD10B5002400F005
:1046500049FD002804D0012804D0164801F040FC90
:10466000204610BD0124FBE710B5012000F089FAB7
:104670000C490120C87010BD10B5002000F081FA6F
:1046800008490020C87010BD81000B480918C87E79
:10469000401EC876704702484168491C4160704717
:1046A000740000207C00002043020200750202001A
:1046B000A8020200D102020098020020704710B543
:1046C000FE494874FE494A6B120A12024A630028E6
:1046D00009D001280AD0022811D0032818D0F9489F
:1046E00001F0FEFB10BD486B486310BD486B012212
:1046F00010434863FF20C863FF20083006E0486B82
:10470000022210434863F048C863F048886310BD34
:10471000486B032210434863ED48C8630020886358
:1047200010BDF8B5082841D2EA4A12182032117299
:104730008207D60EFF22B240D7438B07CA07DB0F92
:10474000120E9B0113434A07D20F52011A430B0763
:10475000DB0F1B019C46CB06DB0FDD008B06DB0F5E
:104760009C004B06DB0F5B00C9090428D4480ED21D
:10477000406A3840D24F78626046104305432C436C
:1047800023431943786AB14001437962F8BD806AD6
:104790003840CB4FB8626046104305432C43234357
:1047A0001943B86AB1400143B962F8BDCA4801F083
:1047B00097FBF8BDF0B4C749486200210B461826A4
:1047C000DD000246EA40D2B2D407270E9407E40F78
:1047D000A4013C435707FF0F7F0127431407E40F51
:1047E00024013C43D706FF0FFF003C439706FF0F11
:1047F000BF0027435406E40F64003C43D209224320
:10480000741BA2405B1C1143DBB2042BD8D3AC4811
:104810000162F0BC7047F0B4AE49086200210B465B
:104820001826DD000246EA40D2B2D407270E9407CC
:10483000E40FA4013C435707FF0F7F0127431407F0
:10484000E40F24013C43D706FF0FFF003C439706CB
:10485000FF0FBF0027435406E40F64003C43D20916
:104860002243741BA2405B1C1143DBB2042BD8D340
:104870009348C161F0BC70479649487790498A696E
:1048800007231B049A43000402438A617047F8B56A
:10489000924D002068610326AE609149C8630120F3
:1048A000C863874C60698915884360616069000945
:1048B0000001801D606160690F2109048843310493
:1048C00040186061A069012149068843A061A06980
:1048D00049100843A061A069000A00022030A061CD
:1048E000A069FF2109028843A0617E490220086077
:1048F00001F07FFEE8617C48A8616E607B4801F0B2
:1049000006FF7B4948607348A269417F07231B0467
:104910009A4309040A43A2610021036A0A46182740
:10492000D6001846F040C0B28507C407ED0F240E2C
:10493000AD0125434407E40F64012C430507ED0F47
:104940002D012543C406E40FE4002C438506ED0F3A
:10495000AD0025434406E40F64002C43C009204306
:10496000BC1BA040521C0143D2B2042AD8D35448E5
:10497000C16158480021436A0A46D6001846F040F3
:10498000C0B2C407250E8407E40FA4012C434507D9
:10499000ED0F6D0125430407E40F24012C43C506E8
:1049A000ED0FED0025438406E40FA4002C434506DB
:1049B000ED0F6D002543C0092843BC1BA040521CCD
:1049C0000143D2B2042AD8D33D4D2962414E00247E
:1049D00030192030007A082C4ED2A107C90EFF22D0
:1049E0008A40D243042C23D26B6A13406B62C20705
:1049F000130E8207D20F92011A434307DB0F5B01AC
:104A000013430207D20F12011A43C306DB0FDB0068
:104A100013438206D20F92001A434306DB0F5B005A
:104A20001343C00918438840696A0843686226E056
:104A3000AB6A1340AB628307C207DB0F120E9F0104
:104A400017434207D20F53010207D20F3B43120113
:104A50001A43C306DB0FDB0013438206D20F970015
:104A60004206D20F52001F433A43C0091043884008
:104A7000A96A0843A86202E0174801F031FA641CF1
:104A8000082CA5DB0D4C207CE860607C696B090A72
:104A900009026963002841D0012842D002284AD087
:104AA000032850D0074801F01BFAA07C114B124993
:104AB000124C134A00284FD0012823E04402002062
:104AC00000150040C2030900FFFF00002110010093
:104AD000FFFFFF00240200203903090000F5014018
:104AE000C01F004080E200E004110040740200207A
:104AF0008400002000500078001700404E00005451
:104B00003E420F8232D0022807D128618C62F748DA
:104B10004B62C862F6484A630863F8BD686B686315
:104B2000C3E7686B012108436863FF20E863FF2047
:104B30000830A863B9E7686B022108436863ED4851
:104B4000E863ED4806E0686B032108436863EB48BF
:104B5000E8630020A863A8E7002028618C62E84889
:104B60004B62C862E7484A630863F8BD01202861C8
:104B70008C62E5484B62C862E4480863E4484863D5
:104B8000F8BD10B501F0A0F910BDE24908777047F3
:104B9000E04948767047DF4908767047DD49488329
:104BA000704710B4DB49DC4A88601478DB4B022C78
:104BB00002D05268002A03D0C868186010BC704741
:104BC000186010BC704710B4D249D34AC86014783A
:104BD000D24B022C02D05268002A02D0186010BCBE
:104BE00070478868186010BC7047CA4948607047B1
:104BF000C84948617047F0B5C74E83B030787178C6
:104C000088426DD0002801D1FFF741FE7078C44D75
:104C1000002400281CD10320A86001F0EEF8012830
:104C200004D0022802D0032812D104E00021084653
:104C300000F0A2FF07E0002300941A461946184628
:104C4000019401F024F8042802D0B64801F048F994
:104C50006C6101F023FDB44DAE4F2C606C602C6193
:104C6000AC60EC603078012802D0022809D01CE04A
:104C700001F0C3F8002815D00021084600F07CFFA1
:104C800010E001F00BFDA9482C61047001F0B5F8AB
:104C9000032807D1002300941A46194618460194A8
:104CA00000F0F5FF3078022802D07068002813D099
:104CB0009A48F968016070783070042568460023CE
:104CC000057001930381438143708470C47001F0C7
:104CD0006BFF012003B0F0BD9048B9680160EAE7BE
:104CE000002003B0F0BD10B5012181F310888A497E
:104CF0000A78824205D04870487E002805D000F02E
:104D000008FE002080F3108810BDFFF774FFF8E75D
:104D1000F8B50646012080F310887F4C00256070AE
:104D200003202070A5706560A560A581E5812561DF
:104D3000656125767C486576056045608560C5605F
:104D400005610575754F1830BD60456001F0AEFB1B
:104D5000304601F017FF00F061FE002001F0ACFFCB
:104D6000384601F0C1F8734A71481168FF231B04EB
:104D70009943116001681A12914301606E480168FD
:104D80004022090A090211430160012080F31088C2
:104D90002178012905D06070607E002861D000F084
:104DA000B8FD002080F31088411E5A4E0420316166
:104DB000707762483062624870626248E72202722D
:104DC000C2224272C3228272C422C272C5220273FC
:104DD000C6224273C7228273C822C27300220274A1
:104DE00002234374012585744B207261C000F16079
:104DF00070602278022A02D06068002834D0084609
:104E000038600846B160022A02D06268002A2DD0BC
:104E10003960102070830120307670760020307762
:104E200001F052F8692030606078012802D04648CD
:104E300001F056F825700025A5706560A560A58174
:104E4000E5812561656125766576FFF720FD012105
:104E50003E48890201608902016085F310882E486E
:104E6000F8BDFFF7C8FE9CE7B068C9E73860D0E737
:104E700070B5294C607E00281CD1FFF708FD274D36
:104E8000A868002802D1324801F02AF86868002892
:104E900002D1304801F024F801F01DFF002802D0B3
:104EA0002D4801F01DF8002001F00BFF0120607675
:104EB00000F02FFD70BD10B5012080F3108816485A
:104EC000417E002906D08178002903D1012181701B
:104ED00000F01FFD002080F3108810BD0E48407EBA
:104EE000002801D0002070470120704708800C6026
:104EF00088647200FFFF000021100100FFFFFF0027
:104F000003800C602264720002800C6011646600F1
:104F1000DEC08F8224020020580200208C02002074
:104F200000F50140E801090074020020840000201F
:104F300000E400E008E400E014E400E0E7E7E7E76D
:104F4000C2C2C2C2440200203C02090080E200E06A
:104F50005E0209005F02090066020900FE4800784F
:104F6000704710B5012080F3108800F08AFD002101
:104F700081F3108810BD10B5012181F3108800F075
:104F80007EFE002080F3108810BD10B5012282F350
:104F9000108800F061FF00280DD0EF4881780029CB
:104FA00004D1407E002801D000F0B3FC002080F343
:104FB0001088012010BD002080F3108810BD10B5AE
:104FC000012181F3108800F075FF002181F3108822
:104FD00010BD10B500F069FF10BD10B5012181F3BF
:104FE000108800F057FD002181F3108810BD10B526
:104FF00000F049FE10BD10B500F047FD10BD10B522
:1050000000F026FF10BD10B50446012181F3108881
:10501000D1490878002805D0487E002802D0CF4822
:1050200000F05EFF204600F02AFF002080F3108889
:1050300010BD10B5012181F3108800F040FF002061
:1050400080F3108810BDC648006A7047C448406AA3
:10505000704710B50446082802D3C24800F040FF4C
:10506000BF4800192030007A10BD70B50C0005460D
:1050700002D1BD4800F034FF002D02D1BB4800F042
:105080002FFFBB4885604460002001F020F870BD10
:10509000B34840697047B248407F7047B0490861E3
:1050A0007047AF4800697047AD4840687047AC48EA
:1050B000C0687047AA4880687047A948408B70470D
:1050C00010B50446AB484068002802D1AA4800F059
:1050D00007FFAA48047510BDA148007E7047A0488C
:1050E000407E70479E48007F704710B5A14905205B
:1050F000087000F0A5F810BDF0B5A1488BB00368AA
:10510000A0499E4A012B02D04B6B002B05D153685E
:105110001B78202B01D8012300E00023954D0324A8
:105120002C700024954A002B146057D08468826844
:10513000CA62924A03A901920091C26801232146E2
:10514000184600F0A4FD002824D0012805D002282C
:1051500024D003284FD08C484BE00398002802D07D
:105160008A4800F0BDFE204600F08FFC002802D1E6
:10517000874800F0B5FE68680222817D68460026F7
:10518000027001960681468144708170C67001F0FC
:105190000BFD30E07F4800F0A3FE2CE003980028D0
:1051A00002D17D4800F09CFE204600F06EFC0028F5
:1051B00002D17A4800F094FE68680222817D039E45
:1051C0006846027000236A46019613815381447039
:1051D00001278170C77001F0E7FC0CE0002000900F
:1051E000034602460146019000F051FD042802D01A
:1051F0006B4800F075FE614C2068002807D0012044
:10520000607568482061042028700BB0F0BD01F083
:1052100045FA00206075206100F012F80BB0F0BD77
:1052200010B5544C2078012802D05F4800F058FE99
:10523000022020705148002101615C49C16010BD0D
:1052400070B501F02BFA4D4C00254A4E0120256126
:10525000307043484B490069086300F0CEFD0028D8
:105260001FD000F0CAFD032802D0514800F038FEDC
:10527000022001F07BFA002001F0D0FA00F0BDFD21
:10528000032802D04B4800F02BFE3078012802D0D2
:10529000454800F025FE0220307044482561E0605A
:1052A00070BD01F0B3FC0228E2D300F0C9FC6060DD
:1052B0000028DDD14048D9E7F0B5314885B0006815
:1052C000012803D02F48406B002806D12B484068A6
:1052D0000078202801D8012500E000251E4C012679
:1052E0006069002804D101F01FF9002800D166612F
:1052F00000F083FD012802D0304800F0F1FD1D4888
:105300004068007D002802D02D4800F0E9FD01F042
:10531000C5F9002D7AD00121084600F02DFC0528A2
:1053200078D201007944097949188F440270547089
:105330007000002700F07EFC0390A689E58900F04C
:1053400076FC02460B4869464068837D0F700399DE
:1053500001910020694635E058020020FA02090058
:105360002402002041030900480309004903090001
:105370008C02002084000020F60309007402002043
:105380000014004000150040C8050900B8050900D8
:10539000B9050900BD050900C0050900C1050900DE
:1053A000CF050900EB50000092050900F9500000FC
:1053B00080050900880509007B050900A806090089
:1053C000A90609000E814D814A708B70C87068462D
:1053D00001F0EAFB1EE0002700F02CFC0390A689F8
:1053E000E58900F024FC0246FB4869464068837D5D
:1053F0000F700399019169460E814D814A70012019
:105400008B70C870684601F0CFFB03E013E0F348EF
:1054100000F066FD00F068FE2061F148F149426944
:1054200062602378022B01D0002A06D0C068086091
:10543000002000F05CFE05B0F0BD8068F7E7F0B535
:10544000E948E84C4069E64EE34F87B0002803D1B5
:1054500001F06AF8002816D0E34D6868002801D0F2
:10546000401E68602878022802D0696800297DD033
:10547000F1682160A978002979D000F042FD00F0A0
:105480006FFA07B0F0BDD84800250078012802D097
:10549000022805D009E001F0D9FE002805D0C5E1B9
:1054A000387804287DD003287BD000F02AFDCE4830
:1054B0004168002901D0491E41600178022902D0CB
:1054C0004168002909D0F1682160044680780028ED
:1054D00005D000F045FA07B0F0BDB168F4E7FFF77A
:1054E0008AFB002812D00020766801F0EAFB606990
:1054F000B04202D3BD4800F0F3FC60690122311ACA
:10550000BB4801F014F8656107B0F0BD20780028B1
:105510007ED0012818D002287BD0B64800F0E0FCED
:10552000707E0128F0D120780228EDD06168002932
:10553000EAD10127BF0700286CD001286BD0AE4804
:1055400000F0CEFC07B0F0BD01F0A8F800F055FC6B
:10555000002827D0708B00287DD0A18981427AD382
:105560000121002000F008FB012701E068E169E16A
:1055700000F060FB0590A2890492E289039200F09A
:1055800056FB69460F70059901916946049A0A8194
:10559000039A4A8148708D70CD70684601F004FB13
:1055A000A7E043E101F032FB02287DD320780228F6
:1055B00002D06068002804D000F0A6FD002832D098
:1055C00097E0206900F083FD002000F090FD00F0DE
:1055D00065FA002868D0A581E58100F028FB87499D
:1055E000C86200F024FB012181408448016300F07F
:1055F00021FB8349086000F020FB81494860814815
:10560000C86000F054FD7D49886000F0F6FB03E0BF
:10561000BEE09FE0FEE0C6E0012872D000F0EDFBA6
:1056200002285CD058E0307E002828D000F036FAFE
:1056300000285ED0A581E58100F0F9FA6F49C862C3
:1056400000F0F5FA012181406C48016300F0F2FAA4
:105650006B49086000E055E000F0EFFA68494860E7
:105660006848C86000F023FD6449886000F0C5FB0D
:10567000012865D000F0C1FB02285FD02CE000F0CB
:1056800033FD2169884234D100F008FA002830D077
:10569000A581E58100F0CBFA5849C86200F0C7FA4D
:1056A00001218140554800E023E0016300F0C2FA87
:1056B0005349086000F0C1FA514948605148C86038
:1056C00000F0F5FC4D49886000F097FB012837D0C9
:1056D00000F093FB022831D04B4800F001FC2DE094
:1056E00001F044F800F087FF484908617868406895
:1056F00048610120376801F0E4FA6069B84221D3BB
:105700004DE01DE000F010FF002802D0404800F0FE
:10571000E7FB00F0CCFC39498968884202D0E08977
:10572000401CE08100F0C3FC3449886000F065FB58
:10573000012805D000F061FB0228CDD10020CFE781
:105740000120CDE760690122391A294800F0EFFEF7
:105750006561E5E60020009000F0A9FC2749896812
:10576000884201D1009805E000F0A1FC234988603F
:10577000012000903978401E084201D1FFF760FDFA
:105780000020776801F09DFA6069B842DAD306E03C
:105790000020776801F095FA6069B842D2D31348C7
:1057A00000F09EFBCEE700F028FB002800D0C9E601
:1057B00000F064F90028FAD100F0B3FE0128F6D019
:1057C00000F09FFE307F00282DD0002001F079FAF4
:1057D000656007B0F0BD000084000020C806090025
:1057E000240200208C020020580200204D060900EF
:1057F000E96C00005804090072040900001500401B
:1058000074020020B95200001E06090000F5014094
:105810000A05090000F085FE0128DAD000F071FECB
:10582000307F0028D1D101207860CEE77068012256
:1058300041086F4841616F4800F079FE07B0F0BD44
:10584000B16816E6022809D000F05BFB00207468FE
:1058500001F037FA6869A04223D31FE038780428A2
:1058600029D0032827D000F04CFB002400F01FFCB7
:10587000614FB968884203D000F019FCB860012478
:105880005E48641E0078044201D1FFF7D9FC002075
:10589000746801F016FA6869A04202D3584800F013
:1058A0001FFB68690122211A524800F040FE0020C7
:1058B000686107B0F0BD7068012241084D48696118
:1058C00000F035FE07B0F0BD70B54C48484C40685C
:1058D000407D002805D0012000F0A0FFA089401CD9
:1058E000A0810026474930464E6147494A68096809
:1058F000551A01F0E6F96069A84202D3404800F069
:10590000EFFA60690122291A3A4800F010FE666138
:1059100070BD10B500F005FE012820D101F0E1F9BD
:10592000002802D0394800F0DBFA00221E2131485D
:1059300000F0FDFD3448007F00280ED134480121DD
:1059400041613448002202608205116000BF00BF3F
:1059500000BF00BF01680029FCD000F0CBFD10BDE6
:1059600030B5234D83B0687E00283AD000F0D9FDD1
:10597000002401280CD000F0C4FD2348007F00283B
:1059800002D1012081074860002001F09AF96C6083
:1059900000F084FEAC706C760521684601700194BD
:1059A0000481448144708470C47001F0FDF8134890
:1059B000144904700320886000F01FFA012812D0F7
:1059C000022810D003280CD1002300941A4619464F
:1059D0001846019400F05BF9042802D00E4800F04C
:1059E0007FFA03B030BD0021084600F0C5F8F3E7A8
:1059F00058020020E96C00000015004084000020DF
:105A00004D06090000F50140240200202C06090083
:105A10000005004000010040E801090070B500F0F9
:105A200089FB0022F64CF74E104601069300014315
:105A30001B199961134605060146083329439D0049
:105A40002D19A961A11880310870E1188031087002
:105A5000B054521C082AE8D320706060A060E06057
:105A60002061E94960610874E84A48741076E0678B
:105A70000120887470BDE349085C7047E248007CEF
:105A8000704710B500F098FB10BD10B5083001F05C
:105A900067FB10BD10B500F05EFC10BD70B5D84CB2
:105AA0002078002802D0DA4800F01AFAD64D0026F5
:105AB000287C002825D02069606000F04CFCA060A4
:105AC000002802D1D34800F00BFAA0684078C00744
:105AD00005D1A87C002802D00220E6600FE06068B3
